{
  "address": "0xb5f196C82b6239ae6ce24f0259f10569fc9Af6fF",
  "abi": [
    {
      "inputs": [
        {
          "internalType": "address",
          "name": "_endpoint",
          "type": "address"
        },
        {
          "internalType": "address",
          "name": "_delegate",
          "type": "address"
        }
      ],
      "stateMutability": "nonpayable",
      "type": "constructor"
    },
    {
      "inputs": [
        {
          "internalType": "address",
          "name": "target",
          "type": "address"
        }
      ],
      "name": "AddressEmptyCode",
      "type": "error"
    },
    {
      "inputs": [
        {
          "internalType": "address",
          "name": "account",
          "type": "address"
        }
      ],
      "name": "AddressInsufficientBalance",
      "type": "error"
    },
    {
      "inputs": [],
      "name": "FailedInnerCall",
      "type": "error"
    },
    {
      "inputs": [],
      "name": "InvalidDelegate",
      "type": "error"
    },
    {
      "inputs": [],
      "name": "InvalidEndpointCall",
      "type": "error"
    },
    {
      "inputs": [],
      "name": "LzTokenUnavailable",
      "type": "error"
    },
    {
      "inputs": [
        {
          "internalType": "uint32",
          "name": "eid",
          "type": "uint32"
        }
      ],
      "name": "NoPeer",
      "type": "error"
    },
    {
      "inputs": [
        {
          "internalType": "uint256",
          "name": "msgValue",
          "type": "uint256"
        }
      ],
      "name": "NotEnoughNative",
      "type": "error"
    },
    {
      "inputs": [
        {
          "internalType": "address",
          "name": "addr",
          "type": "address"
        }
      ],
      "name": "OnlyEndpoint",
      "type": "error"
    },
    {
      "inputs": [
        {
          "internalType": "uint32",
          "name": "eid",
          "type": "uint32"
        },
        {
          "internalType": "bytes32",
          "name": "sender",
          "type": "bytes32"
        }
      ],
      "name": "OnlyPeer",
      "type": "error"
    },
    {
      "inputs": [
        {
          "internalType": "address",
          "name": "owner",
          "type": "address"
        }
      ],
      "name": "OwnableInvalidOwner",
      "type": "error"
    },
    {
      "inputs": [
        {
          "internalType": "address",
          "name": "account",
          "type": "address"
        }
      ],
      "name": "OwnableUnauthorizedAccount",
      "type": "error"
    },
    {
      "inputs": [
        {
          "internalType": "address",
          "name": "token",
          "type": "address"
        }
      ],
      "name": "SafeERC20FailedOperation",
      "type": "error"
    },
    {
      "anonymous": false,
      "inputs": [
        {
          "indexed": false,
          "internalType": "uint256",
          "name": "challengeId",
          "type": "uint256"
        },
        {
          "indexed": false,
          "internalType": "address",
          "name": "creator",
          "type": "address"
        },
        {
          "indexed": false,
          "internalType": "uint256",
          "name": "stakeAmount",
          "type": "uint256"
        },
        {
          "indexed": false,
          "internalType": "uint256",
          "name": "repetitions",
          "type": "uint256"
        },
        {
          "indexed": false,
          "internalType": "uint256",
          "name": "startTime",
          "type": "uint256"
        },
        {
          "indexed": false,
          "internalType": "uint256",
          "name": "duration",
          "type": "uint256"
        }
      ],
      "name": "ChallengeCreated",
      "type": "event"
    },
    {
      "anonymous": false,
      "inputs": [
        {
          "indexed": false,
          "internalType": "uint256",
          "name": "challengeId",
          "type": "uint256"
        },
        {
          "indexed": false,
          "internalType": "address",
          "name": "participant",
          "type": "address"
        },
        {
          "indexed": false,
          "internalType": "uint256",
          "name": "stakeAmount",
          "type": "uint256"
        }
      ],
      "name": "ChallengeJoined",
      "type": "event"
    },
    {
      "anonymous": false,
      "inputs": [
        {
          "indexed": false,
          "internalType": "uint256",
          "name": "challengeId",
          "type": "uint256"
        },
        {
          "indexed": false,
          "internalType": "address",
          "name": "sponsor",
          "type": "address"
        },
        {
          "indexed": false,
          "internalType": "uint256",
          "name": "amount",
          "type": "uint256"
        }
      ],
      "name": "ChallengeSponsored",
      "type": "event"
    },
    {
      "anonymous": false,
      "inputs": [
        {
          "indexed": false,
          "internalType": "uint256",
          "name": "challengeId",
          "type": "uint256"
        },
        {
          "indexed": false,
          "internalType": "address",
          "name": "participant",
          "type": "address"
        },
        {
          "indexed": false,
          "internalType": "uint256",
          "name": "progress",
          "type": "uint256"
        }
      ],
      "name": "HabitCompleted",
      "type": "event"
    },
    {
      "anonymous": false,
      "inputs": [
        {
          "indexed": true,
          "internalType": "address",
          "name": "previousOwner",
          "type": "address"
        },
        {
          "indexed": true,
          "internalType": "address",
          "name": "newOwner",
          "type": "address"
        }
      ],
      "name": "OwnershipTransferred",
      "type": "event"
    },
    {
      "anonymous": false,
      "inputs": [
        {
          "indexed": false,
          "internalType": "uint32",
          "name": "eid",
          "type": "uint32"
        },
        {
          "indexed": false,
          "internalType": "bytes32",
          "name": "peer",
          "type": "bytes32"
        }
      ],
      "name": "PeerSet",
      "type": "event"
    },
    {
      "anonymous": false,
      "inputs": [
        {
          "indexed": false,
          "internalType": "uint256",
          "name": "challengeId",
          "type": "uint256"
        },
        {
          "indexed": false,
          "internalType": "uint256",
          "name": "totalParticipants",
          "type": "uint256"
        }
      ],
      "name": "SponsorRewardsDistributed",
      "type": "event"
    },
    {
      "inputs": [
        {
          "components": [
            {
              "internalType": "uint32",
              "name": "srcEid",
              "type": "uint32"
            },
            {
              "internalType": "bytes32",
              "name": "sender",
              "type": "bytes32"
            },
            {
              "internalType": "uint64",
              "name": "nonce",
              "type": "uint64"
            }
          ],
          "internalType": "struct Origin",
          "name": "origin",
          "type": "tuple"
        }
      ],
      "name": "allowInitializePath",
      "outputs": [
        {
          "internalType": "bool",
          "name": "",
          "type": "bool"
        }
      ],
      "stateMutability": "view",
      "type": "function"
    },
    {
      "inputs": [
        {
          "internalType": "uint256",
          "name": "amount",
          "type": "uint256"
        }
      ],
      "name": "approveTokenTransfer",
      "outputs": [],
      "stateMutability": "nonpayable",
      "type": "function"
    },
    {
      "inputs": [],
      "name": "challengeCounter",
      "outputs": [
        {
          "internalType": "uint256",
          "name": "",
          "type": "uint256"
        }
      ],
      "stateMutability": "view",
      "type": "function"
    },
    {
      "inputs": [
        {
          "internalType": "uint256",
          "name": "",
          "type": "uint256"
        }
      ],
      "name": "challenges",
      "outputs": [
        {
          "internalType": "address",
          "name": "creator",
          "type": "address"
        },
        {
          "internalType": "uint256",
          "name": "stakeAmount",
          "type": "uint256"
        },
        {
          "internalType": "uint256",
          "name": "repetitions",
          "type": "uint256"
        },
        {
          "internalType": "uint256",
          "name": "startTime",
          "type": "uint256"
        },
        {
          "internalType": "uint256",
          "name": "duration",
          "type": "uint256"
        },
        {
          "internalType": "bool",
          "name": "isOpenForSponsors",
          "type": "bool"
        },
        {
          "internalType": "bool",
          "name": "rewardsDistributed",
          "type": "bool"
        },
        {
          "internalType": "uint256",
          "name": "totalStakeAmount",
          "type": "uint256"
        },
        {
          "internalType": "uint256",
          "name": "totalSponsoredAmount",
          "type": "uint256"
        },
        {
          "internalType": "uint256",
          "name": "totalPenalizedAmount",
          "type": "uint256"
        }
      ],
      "stateMutability": "view",
      "type": "function"
    },
    {
      "inputs": [
        {
          "internalType": "uint256",
          "name": "_challengeId",
          "type": "uint256"
        }
      ],
      "name": "completeHabit",
      "outputs": [],
      "stateMutability": "nonpayable",
      "type": "function"
    },
    {
      "inputs": [
        {
          "internalType": "string[]",
          "name": "_videoLinks",
          "type": "string[]"
        },
        {
          "internalType": "uint256",
          "name": "_stakeAmount",
          "type": "uint256"
        },
        {
          "internalType": "uint256",
          "name": "_repetitions",
          "type": "uint256"
        },
        {
          "internalType": "uint256",
          "name": "_startTime",
          "type": "uint256"
        },
        {
          "internalType": "uint256",
          "name": "_duration",
          "type": "uint256"
        },
        {
          "internalType": "bool",
          "name": "_isOpenForSponsors",
          "type": "bool"
        }
      ],
      "name": "createChallenge",
      "outputs": [],
      "stateMutability": "nonpayable",
      "type": "function"
    },
    {
      "inputs": [],
      "name": "data",
      "outputs": [
        {
          "internalType": "string",
          "name": "",
          "type": "string"
        }
      ],
      "stateMutability": "view",
      "type": "function"
    },
    {
      "inputs": [
        {
          "internalType": "uint256",
          "name": "_challengeId",
          "type": "uint256"
        }
      ],
      "name": "distributeSponsorRewards",
      "outputs": [],
      "stateMutability": "nonpayable",
      "type": "function"
    },
    {
      "inputs": [],
      "name": "endpoint",
      "outputs": [
        {
          "internalType": "contract ILayerZeroEndpointV2",
          "name": "",
          "type": "address"
        }
      ],
      "stateMutability": "view",
      "type": "function"
    },
    {
      "inputs": [
        {
          "internalType": "uint256",
          "name": "_challengeId",
          "type": "uint256"
        }
      ],
      "name": "getChallengeVideos",
      "outputs": [
        {
          "internalType": "string[]",
          "name": "",
          "type": "string[]"
        }
      ],
      "stateMutability": "view",
      "type": "function"
    },
    {
      "inputs": [
        {
          "internalType": "uint256",
          "name": "_challengeId",
          "type": "uint256"
        }
      ],
      "name": "getParticipants",
      "outputs": [
        {
          "internalType": "address[]",
          "name": "",
          "type": "address[]"
        },
        {
          "internalType": "uint256[]",
          "name": "",
          "type": "uint256[]"
        }
      ],
      "stateMutability": "view",
      "type": "function"
    },
    {
      "inputs": [
        {
          "internalType": "address",
          "name": "_user",
          "type": "address"
        }
      ],
      "name": "getUserChallenges",
      "outputs": [
        {
          "internalType": "uint256[]",
          "name": "",
          "type": "uint256[]"
        }
      ],
      "stateMutability": "view",
      "type": "function"
    },
    {
      "inputs": [
        {
          "components": [
            {
              "internalType": "uint32",
              "name": "srcEid",
              "type": "uint32"
            },
            {
              "internalType": "bytes32",
              "name": "sender",
              "type": "bytes32"
            },
            {
              "internalType": "uint64",
              "name": "nonce",
              "type": "uint64"
            }
          ],
          "internalType": "struct Origin",
          "name": "",
          "type": "tuple"
        },
        {
          "internalType": "bytes",
          "name": "",
          "type": "bytes"
        },
        {
          "internalType": "address",
          "name": "_sender",
          "type": "address"
        }
      ],
      "name": "isComposeMsgSender",
      "outputs": [
        {
          "internalType": "bool",
          "name": "",
          "type": "bool"
        }
      ],
      "stateMutability": "view",
      "type": "function"
    },
    {
      "inputs": [
        {
          "internalType": "uint256",
          "name": "_challengeId",
          "type": "uint256"
        },
        {
          "internalType": "address",
          "name": "_user",
          "type": "address"
        }
      ],
      "name": "isUserEnrolled",
      "outputs": [
        {
          "internalType": "bool",
          "name": "",
          "type": "bool"
        }
      ],
      "stateMutability": "view",
      "type": "function"
    },
    {
      "inputs": [
        {
          "internalType": "uint256",
          "name": "_challengeId",
          "type": "uint256"
        },
        {
          "internalType": "address",
          "name": "_user",
          "type": "address"
        }
      ],
      "name": "isUserSponsor",
      "outputs": [
        {
          "internalType": "bool",
          "name": "",
          "type": "bool"
        }
      ],
      "stateMutability": "view",
      "type": "function"
    },
    {
      "inputs": [
        {
          "internalType": "uint256",
          "name": "_challengeId",
          "type": "uint256"
        }
      ],
      "name": "joinChallenge",
      "outputs": [],
      "stateMutability": "nonpayable",
      "type": "function"
    },
    {
      "inputs": [
        {
          "components": [
            {
              "internalType": "uint32",
              "name": "srcEid",
              "type": "uint32"
            },
            {
              "internalType": "bytes32",
              "name": "sender",
              "type": "bytes32"
            },
            {
              "internalType": "uint64",
              "name": "nonce",
              "type": "uint64"
            }
          ],
          "internalType": "struct Origin",
          "name": "_origin",
          "type": "tuple"
        },
        {
          "internalType": "bytes32",
          "name": "_guid",
          "type": "bytes32"
        },
        {
          "internalType": "bytes",
          "name": "_message",
          "type": "bytes"
        },
        {
          "internalType": "address",
          "name": "_executor",
          "type": "address"
        },
        {
          "internalType": "bytes",
          "name": "_extraData",
          "type": "bytes"
        }
      ],
      "name": "lzReceive",
      "outputs": [],
      "stateMutability": "payable",
      "type": "function"
    },
    {
      "inputs": [
        {
          "internalType": "uint32",
          "name": "",
          "type": "uint32"
        },
        {
          "internalType": "bytes32",
          "name": "",
          "type": "bytes32"
        }
      ],
      "name": "nextNonce",
      "outputs": [
        {
          "internalType": "uint64",
          "name": "nonce",
          "type": "uint64"
        }
      ],
      "stateMutability": "view",
      "type": "function"
    },
    {
      "inputs": [],
      "name": "oAppVersion",
      "outputs": [
        {
          "internalType": "uint64",
          "name": "senderVersion",
          "type": "uint64"
        },
        {
          "internalType": "uint64",
          "name": "receiverVersion",
          "type": "uint64"
        }
      ],
      "stateMutability": "pure",
      "type": "function"
    },
    {
      "inputs": [],
      "name": "owner",
      "outputs": [
        {
          "internalType": "address",
          "name": "",
          "type": "address"
        }
      ],
      "stateMutability": "view",
      "type": "function"
    },
    {
      "inputs": [
        {
          "internalType": "uint32",
          "name": "eid",
          "type": "uint32"
        }
      ],
      "name": "peers",
      "outputs": [
        {
          "internalType": "bytes32",
          "name": "peer",
          "type": "bytes32"
        }
      ],
      "stateMutability": "view",
      "type": "function"
    },
    {
      "inputs": [
        {
          "internalType": "uint256",
          "name": "_challengeId",
          "type": "uint256"
        },
        {
          "internalType": "address",
          "name": "_user",
          "type": "address"
        }
      ],
      "name": "penalizeMissedRepetition",
      "outputs": [],
      "stateMutability": "nonpayable",
      "type": "function"
    },
    {
      "inputs": [
        {
          "internalType": "uint32",
          "name": "_dstEid",
          "type": "uint32"
        },
        {
          "internalType": "string",
          "name": "_message",
          "type": "string"
        },
        {
          "internalType": "bytes",
          "name": "_options",
          "type": "bytes"
        },
        {
          "internalType": "bool",
          "name": "_payInLzToken",
          "type": "bool"
        }
      ],
      "name": "quote",
      "outputs": [
        {
          "components": [
            {
              "internalType": "uint256",
              "name": "nativeFee",
              "type": "uint256"
            },
            {
              "internalType": "uint256",
              "name": "lzTokenFee",
              "type": "uint256"
            }
          ],
          "internalType": "struct MessagingFee",
          "name": "fee",
          "type": "tuple"
        }
      ],
      "stateMutability": "view",
      "type": "function"
    },
    {
      "inputs": [],
      "name": "renounceOwnership",
      "outputs": [],
      "stateMutability": "nonpayable",
      "type": "function"
    },
    {
      "inputs": [
        {
          "internalType": "uint32",
          "name": "_dstEid",
          "type": "uint32"
        },
        {
          "internalType": "string",
          "name": "_message",
          "type": "string"
        },
        {
          "internalType": "bytes",
          "name": "_options",
          "type": "bytes"
        }
      ],
      "name": "send",
      "outputs": [
        {
          "components": [
            {
              "internalType": "bytes32",
              "name": "guid",
              "type": "bytes32"
            },
            {
              "internalType": "uint64",
              "name": "nonce",
              "type": "uint64"
            },
            {
              "components": [
                {
                  "internalType": "uint256",
                  "name": "nativeFee",
                  "type": "uint256"
                },
                {
                  "internalType": "uint256",
                  "name": "lzTokenFee",
                  "type": "uint256"
                }
              ],
              "internalType": "struct MessagingFee",
              "name": "fee",
              "type": "tuple"
            }
          ],
          "internalType": "struct MessagingReceipt",
          "name": "receipt",
          "type": "tuple"
        }
      ],
      "stateMutability": "payable",
      "type": "function"
    },
    {
      "inputs": [
        {
          "internalType": "address",
          "name": "_delegate",
          "type": "address"
        }
      ],
      "name": "setDelegate",
      "outputs": [],
      "stateMutability": "nonpayable",
      "type": "function"
    },
    {
      "inputs": [
        {
          "internalType": "uint32",
          "name": "_eid",
          "type": "uint32"
        },
        {
          "internalType": "bytes32",
          "name": "_peer",
          "type": "bytes32"
        }
      ],
      "name": "setPeer",
      "outputs": [],
      "stateMutability": "nonpayable",
      "type": "function"
    },
    {
      "inputs": [
        {
          "internalType": "uint256",
          "name": "_challengeId",
          "type": "uint256"
        },
        {
          "internalType": "uint256",
          "name": "_amount",
          "type": "uint256"
        }
      ],
      "name": "sponsorChallenge",
      "outputs": [],
      "stateMutability": "nonpayable",
      "type": "function"
    },
    {
      "inputs": [
        {
          "internalType": "address",
          "name": "",
          "type": "address"
        },
        {
          "internalType": "uint256",
          "name": "",
          "type": "uint256"
        }
      ],
      "name": "sponsorFunds",
      "outputs": [
        {
          "internalType": "uint256",
          "name": "",
          "type": "uint256"
        }
      ],
      "stateMutability": "view",
      "type": "function"
    },
    {
      "inputs": [
        {
          "internalType": "uint256",
          "name": "",
          "type": "uint256"
        }
      ],
      "name": "sponsors",
      "outputs": [
        {
          "internalType": "address",
          "name": "",
          "type": "address"
        }
      ],
      "stateMutability": "view",
      "type": "function"
    },
    {
      "inputs": [],
      "name": "token",
      "outputs": [
        {
          "internalType": "contract IERC20",
          "name": "",
          "type": "address"
        }
      ],
      "stateMutability": "view",
      "type": "function"
    },
    {
      "inputs": [
        {
          "internalType": "address",
          "name": "newOwner",
          "type": "address"
        }
      ],
      "name": "transferOwnership",
      "outputs": [],
      "stateMutability": "nonpayable",
      "type": "function"
    }
  ],
  "transactionHash": "0xb226e42004ac5033b6601ae9a234cd7825c834925e8477a32e0c56f768754113",
  "args": [
    "0x6EDCE65403992e310A62460808c4b910D972f10f",
    "0x75d183d150286DB34228faCb0402748627155E3C"
  ],
  "numDeployments": 3,
  "solcInputHash": "65d7a3757d509adb52c4bb976ca08d39",
  "bytecode": "0x60e0604052601560a09081527f4e6f7468696e67207265636569766564207965742e000000000000000000000060c0526007906200003e908262000268565b503480156200004c57600080fd5b5060405162002fc338038062002fc38339810160408190526200006f9162000351565b81818181806001600160a01b038116620000a357604051631e4fbdf760e01b81526000600482015260240160405180910390fd5b620000ae8162000171565b506001600160a01b038083166080528116620000dd57604051632d618d8160e21b815260040160405180910390fd5b60805160405163ca5eb5e160e01b81526001600160a01b0383811660048301529091169063ca5eb5e190602401600060405180830381600087803b1580156200012557600080fd5b505af11580156200013a573d6000803e3d6000fd5b5050600280546001600160a01b031916735fd84259d66cd46123540766be93dfe6d43130d717905550620003899650505050505050565b600080546001600160a01b038381166001600160a01b0319831681178455604051919092169283917f8be0079c531659141344cd1fd0a4f28419497f9722a3daafe3b4186f6b6457e09190a35050565b634e487b7160e01b600052604160045260246000fd5b600181811c90821680620001ec57607f821691505b6020821081036200020d57634e487b7160e01b600052602260045260246000fd5b50919050565b601f82111562000263576000816000526020600020601f850160051c810160208610156200023e5750805b601f850160051c820191505b818110156200025f578281556001016200024a565b5050505b505050565b81516001600160401b03811115620002845762000284620001c1565b6200029c81620002958454620001d7565b8462000213565b602080601f831160018114620002d45760008415620002bb5750858301515b600019600386901b1c1916600185901b1785556200025f565b600085815260208120601f198616915b828110156200030557888601518255948401946001909101908401620002e4565b5085821015620003245787850151600019600388901b60f8161c191681555b5050505050600190811b01905550565b80516001600160a01b03811681146200034c57600080fd5b919050565b600080604083850312156200036557600080fd5b620003708362000334565b9150620003806020840162000334565b90509250929050565b608051612bf4620003cf600039600081816103a601528181610d790152818161153d01528181611b2f01528181611c1d01528181611d140152611dcb0152612bf46000f3fe6080604052600436106101e35760003560e01c80638da5cb5b11610102578063e0539e5811610095578063f77e5dd311610064578063f77e5dd3146106f0578063f7fed02c1461071d578063fc0c546a14610733578063ff7bd03d1461075357600080fd5b8063e0539e581461064e578063e448ee261461066e578063f268475f1461068e578063f2fde38b146106d057600080fd5b8063bd250ff3116100d1578063bd250ff3146105c0578063c1e3bd3e146105e0578063ca5eb5e11461060e578063d0350eca1461062e57600080fd5b80638da5cb5b146104815780638f1d37761461049f57806393066b4c14610573578063bb0b6a531461059357600080fd5b80633aefc5fc1161017a578063715018a611610149578063715018a6146103e057806373d4a13a146103f55780637d25a05e1461041757806382413eac1461045257600080fd5b80633aefc5fc146103275780633bd7c7441461034757806343aab910146103675780635e280f111461039457600080fd5b806311da8e54116101b657806311da8e54146102a557806313137d65146102d257806317442b70146102e55780633400288b1461030757600080fd5b8063040866bc146101e8578063064956d71461020a5780630c90ed561461023f5780630ede6c8414610285575b600080fd5b3480156101f457600080fd5b506102086102033660046120c4565b610773565b005b34801561021657600080fd5b5061022a6102253660046120fb565b61094a565b60405190151581526020015b60405180910390f35b34801561024b57600080fd5b5061027761025a36600461212b565b600560209081526000928352604080842090915290825290205481565b604051908152602001610236565b34801561029157600080fd5b506102086102a0366004612157565b610979565b3480156102b157600080fd5b506102c56102c0366004612170565b610c54565b60405161023691906121c9565b6102086102e036600461223c565b610d77565b3480156102f157600080fd5b5060408051600181526002602082015201610236565b34801561031357600080fd5b506102086103223660046122f4565b610e32565b34801561033357600080fd5b50610208610342366004612157565b610e48565b34801561035357600080fd5b506102086103623660046123e6565b610f4f565b34801561037357600080fd5b50610387610382366004612157565b61102a565b6040516102369190612528565b3480156103a057600080fd5b506103c87f000000000000000000000000000000000000000000000000000000000000000081565b6040516001600160a01b039091168152602001610236565b3480156103ec57600080fd5b50610208611114565b34801561040157600080fd5b5061040a611128565b604051610236919061258c565b34801561042357600080fd5b5061043a6104323660046122f4565b600092915050565b6040516001600160401b039091168152602001610236565b34801561045e57600080fd5b5061022a61046d36600461259f565b6001600160a01b0381163014949350505050565b34801561048d57600080fd5b506000546001600160a01b03166103c8565b3480156104ab57600080fd5b5061051b6104ba366004612157565b60046020819052600091825260409091208054600282015460038301549383015460058401546006850154600b860154600c870154600d909701546001600160a01b0390961697949694959394929360ff808416946101009094041692908a565b604080516001600160a01b03909b168b5260208b01999099529789019690965260608801949094526080870192909252151560a0860152151560c085015260e084015261010083015261012082015261014001610236565b34801561057f57600080fd5b506103c861058e366004612157565b6111b6565b34801561059f57600080fd5b506102776105ae366004612605565b60016020526000908152604090205481565b3480156105cc57600080fd5b506102086105db366004612157565b6111e0565b3480156105ec57600080fd5b506106006105fb366004612157565b6113a2565b604051610236929190612620565b34801561061a57600080fd5b50610208610629366004612170565b611516565b34801561063a57600080fd5b506102086106493660046120fb565b61159c565b61066161065c366004612677565b61166d565b60405161023691906126ed565b34801561067a57600080fd5b50610208610689366004612157565b6116f6565b34801561069a57600080fd5b5061022a6106a93660046120fb565b6001600160a01b031660009081526005602090815260408083209383529290522054151590565b3480156106dc57600080fd5b506102086106eb366004612170565b6118a8565b3480156106fc57600080fd5b5061071061070b36600461272f565b6118e6565b60405161023691906127be565b34801561072957600080fd5b5061027760035481565b34801561073f57600080fd5b506002546103c8906001600160a01b031681565b34801561075f57600080fd5b5061022a61076e3660046127d5565b61192a565b6000828152600460205260409020600681015460ff166107ed5760405162461bcd60e51b815260206004820152602a60248201527f54686973206368616c6c656e6765206973206e6f74206f70656e20666f7220736044820152690706f6e736f72736869760b41b60648201526084015b60405180910390fd5b6002546040516323b872dd60e01b8152336004820152306024820152604481018490526001600160a01b03909116906323b872dd906064016020604051808303816000875af1158015610844573d6000803e3d6000fd5b505050506040513d601f19601f8201168201806040525081019061086891906127f1565b5033600090815260056020908152604080832086845290915290205461088f908390612824565b336000908152600560209081526040808320878452909152902055600c8101546108ba908390612824565b600c820155600680546001810182556000919091527ff652222313e28459528d920b65115c16c04f3efc82aaedc97be59f3f377c0d3f0180546001600160a01b0319163390811790915560408051858152602081019290925281018390527fd61e368466129876e3a075a32c149777adaf7359be748015eaa01fbc3eae2af69060600160405180910390a1505050565b60008281526004602090815260408083206001600160a01b038516845260070190915290205415155b92915050565b610981611960565b60008181526004602052604090206006810154610100900460ff1615610a005760405162461bcd60e51b815260206004820152602e60248201527f5265776172647320616c726561647920646973747269627574656420666f722060448201526d74686973206368616c6c656e676560901b60648201526084016107e4565b600080610a0c8461198d565b905060005b8151811015610a7b578360030154846008016000848481518110610a3757610a37612837565b60200260200101516001600160a01b03166001600160a01b031681526020019081526020016000205403610a735782610a6f8161284d565b9350505b600101610a11565b5060005b600654811015610c0357600060068281548110610a9e57610a9e612837565b60009182526020808320909101546001600160a01b03168083526005825260408084208a85529092529120549091508015801590610adc5750600085115b15610bf9576000610aed8683612866565b905060005b8551811015610bf6578760030154886008016000888481518110610b1857610b18612837565b60200260200101516001600160a01b03166001600160a01b031681526020019081526020016000205403610bee5760025486516001600160a01b039091169063a9059cbb90889084908110610b6f57610b6f612837565b6020026020010151846040518363ffffffff1660e01b8152600401610ba99291906001600160a01b03929092168252602082015260400190565b6020604051808303816000875af1158015610bc8573d6000803e3d6000fd5b505050506040513d601f19601f82011682018060405250810190610bec91906127f1565b505b600101610af2565b50505b5050600101610a7f565b5060068301805461ff00191661010017905560408051858152602081018490527fde61f49cd78aa3da8b2a35849a4ee8ea76fde270ce78741b012e03267f7ab285910160405180910390a150505050565b6060600060015b6003548111610caf5760008181526004602090815260408083206001600160a01b038816845260070190915290205415610c9d5781610c998161284d565b9250505b80610ca78161284d565b915050610c5b565b506000816001600160401b03811115610cca57610cca612310565b604051908082528060200260200182016040528015610cf3578160200160208202803683370190505b509050600060015b6003548111610d6d5760008181526004602090815260408083206001600160a01b038a16845260070190915290205415610d5b5780838381518110610d4257610d42612837565b602090810291909101015281610d578161284d565b9250505b80610d658161284d565b915050610cfb565b5090949350505050565b7f00000000000000000000000000000000000000000000000000000000000000006001600160a01b03163314610dc2576040516391ac5e4f60e01b81523360048201526024016107e4565b60208701803590610ddc90610dd7908a612605565b6119ff565b14610e1a57610dee6020880188612605565b60405163309afaf360e21b815263ffffffff9091166004820152602088013560248201526044016107e4565b610e2987878787878787611a3b565b50505050505050565b610e3a611960565b610e448282611a5e565b5050565b60008111610e985760405162461bcd60e51b815260206004820152601f60248201527f416d6f756e742073686f756c642062652067726561746572207468616e20300060448201526064016107e4565b60025460405163095ea7b360e01b8152336004820152602481018390526000916001600160a01b03169063095ea7b3906044016020604051808303816000875af1158015610eea573d6000803e3d6000fd5b505050506040513d601f19601f82011682018060405250810190610f0e91906127f1565b905080610e445760405162461bcd60e51b815260206004820152600f60248201526e105c1c1c9bdd985b0819985a5b1959608a1b60448201526064016107e4565b600354610f5d906001612824565b6003819055600090815260046020908152604090912080546001600160a01b0319163317815587519091610f989160018401918a0190611fc4565b50600281018690556003808201869055600482018590556005820184905560068201805461ffff191684151561ff00191617905554604080519182523360208301528101879052606081018690526080810185905260a081018490527fddb0285bd457d774e6947556c6095f7349e583bcb78434f9ea0ce5b98e522d3f9060c00160405180910390a150505050505050565b600081815260046020908152604080832060018101805483518186028101860190945280845260609592949192909184015b8282101561110857838290600052602060002001805461107b90612888565b80601f01602080910402602001604051908101604052809291908181526020018280546110a790612888565b80156110f45780601f106110c9576101008083540402835291602001916110f4565b820191906000526020600020905b8154815290600101906020018083116110d757829003601f168201915b50505050508152602001906001019061105c565b50505050915050919050565b61111c611960565b6111266000611aac565b565b6007805461113590612888565b80601f016020809104026020016040519081016040528092919081815260200182805461116190612888565b80156111ae5780601f10611183576101008083540402835291602001916111ae565b820191906000526020600020905b81548152906001019060200180831161119157829003601f168201915b505050505081565b600681815481106111c657600080fd5b6000918252602090912001546001600160a01b0316905081565b600081815260046020908152604080832033845260078101909252909120546112565760405162461bcd60e51b815260206004820152602260248201527f5573657220686173206e6f74206a6f696e65642074686973206368616c6c656e604482015261676560f01b60648201526084016107e4565b336000908152600882016020526040902054611273906001612824565b336000908152600883016020526040902081905560038201541161133b576002543360008181526007840160205260409081902054905163a9059cbb60e01b8152600481019290925260248201526001600160a01b039091169063a9059cbb906044016020604051808303816000875af11580156112f5573d6000803e3d6000fd5b505050506040513d601f19601f8201168201806040525081019061131991906127f1565b5033600090815260078201602090815260408083205460098501909252909120555b336000818152600883016020526040908190205490517fb101278bc15bf98030d854df5dd96ccb0d6bb079469b6da43159da5f55bf61df92611396928683526001600160a01b03919091166020830152604082015260600190565b60405180910390a15050565b6000818152600460205260408120600a81015460609283929190816001600160401b038111156113d4576113d4612310565b6040519080825280602002602001820160405280156113fd578160200160208202803683370190505b5090506000826001600160401b0381111561141a5761141a612310565b604051908082528060200260200182016040528015611443578160200160208202803683370190505b50905060005b8381101561150957600085600a01828154811061146857611468612837565b9060005260206000200160009054906101000a90046001600160a01b031690508084838151811061149b5761149b612837565b60200260200101906001600160a01b031690816001600160a01b031681525050856008016000826001600160a01b03166001600160a01b03168152602001908152602001600020548383815181106114f5576114f5612837565b602090810291909101015250600101611449565b5090969095509350505050565b61151e611960565b60405163ca5eb5e160e01b81526001600160a01b0382811660048301527f0000000000000000000000000000000000000000000000000000000000000000169063ca5eb5e190602401600060405180830381600087803b15801561158157600080fd5b505af1158015611595573d6000803e3d6000fd5b5050505050565b6115a4611960565b6000828152600460205260408120600381015460028201549192916115c99190612866565b60038301546001600160a01b03851660009081526008850160205260409020549192501115611667576001600160a01b0383166000908152600883016020526040902054600383015461161c91906128bc565b61162690826128cf565b6001600160a01b038416600090815260078401602052604090205461164b91906128bc565b6001600160a01b03841660009081526007840160205260409020555b50505050565b611675612016565b600084604051602001611688919061258c565b60408051601f198184030181526020601f870181900481028401810190925285835292506116ec918891849190889088908190840183828082843760009201829052506040805180820190915234815260208101919091529250339150611afc9050565b9695505050505050565b60008181526004602090815260408083203384526007810190925290912054156117715760405162461bcd60e51b815260206004820152602660248201527f557365722068617320616c7265616479206a6f696e65642074686973206368616044820152656c6c656e676560d01b60648201526084016107e4565b60028054908201546040516323b872dd60e01b815233600482015230602482015260448101919091526001600160a01b03909116906323b872dd906064016020604051808303816000875af11580156117ce573d6000803e3d6000fd5b505050506040513d601f19601f820116820180604052508101906117f291906127f1565b506002810180543360009081526007840160209081526040808320939093556008850181528282208290556009850190529081205554600b8201546118379190612824565b600b820155600a8101805460018101825560009182526020918290200180546001600160a01b0319163390811790915560028301546040805186815293840192909252908201527f44c4b6abb371768de3a7756bdb12fd74800a75207fae3d12f5bcd7a7bc4fcee990606001611396565b6118b0611960565b6001600160a01b0381166118da57604051631e4fbdf760e01b8152600060048201526024016107e4565b6118e381611aac565b50565b604080518082019091526000808252602082015260008460405160200161190d919061258c565b60405160208183030381529060405290506116ec86828686611c07565b60006020820180359060019083906119429086612605565b63ffffffff1681526020810191909152604001600020541492915050565b6000546001600160a01b031633146111265760405163118cdaa760e01b81523360048201526024016107e4565b600081815260046020908152604091829020600a8101805484518185028101850190955280855260609492938301828280156119f257602002820191906000526020600020905b81546001600160a01b031681526001909101906020018083116119d4575b5050505050915050919050565b63ffffffff8116600090815260016020526040812054806109735760405163f6ff4fb760e01b815263ffffffff841660048201526024016107e4565b611a47848601866128e6565b600790611a549082612972565b5050505050505050565b63ffffffff8216600081815260016020908152604091829020849055815192835282018390527f238399d427b947898edb290f5ff0f9109849b1c3ba196a42e35f00c50a54b98b9101611396565b600080546001600160a01b038381166001600160a01b0319831681178455604051919092169283917f8be0079c531659141344cd1fd0a4f28419497f9722a3daafe3b4186f6b6457e09190a35050565b611b04612016565b6000611b138460000151611ce8565b602085015190915015611b2d57611b2d8460200151611d10565b7f00000000000000000000000000000000000000000000000000000000000000006001600160a01b0316632637a450826040518060a001604052808b63ffffffff168152602001611b7d8c6119ff565b81526020018a815260200189815260200160008960200151111515815250866040518463ffffffff1660e01b8152600401611bb9929190612a31565b60806040518083038185885af1158015611bd7573d6000803e3d6000fd5b50505050506040513d601f19601f82011682018060405250810190611bfc9190612af8565b979650505050505050565b60408051808201909152600080825260208201527f00000000000000000000000000000000000000000000000000000000000000006001600160a01b031663ddc28c586040518060a001604052808863ffffffff168152602001611c6a896119ff565b8152602001878152602001868152602001851515815250306040518363ffffffff1660e01b8152600401611c9f929190612a31565b6040805180830381865afa158015611cbb573d6000803e3d6000fd5b505050506040513d601f19601f82011682018060405250810190611cdf9190612b69565b95945050505050565b6000813414611d0c576040516304fb820960e51b81523460048201526024016107e4565b5090565b60007f00000000000000000000000000000000000000000000000000000000000000006001600160a01b031663e4fe1d946040518163ffffffff1660e01b8152600401602060405180830381865afa158015611d70573d6000803e3d6000fd5b505050506040513d601f19601f82011682018060405250810190611d949190612b85565b90506001600160a01b038116611dbd576040516329b99a9560e11b815260040160405180910390fd5b6040805133602482018190527f00000000000000000000000000000000000000000000000000000000000000006001600160a01b03818116604485015260648085018890528551808603909101815260849094019094526020830180516001600160e01b03166323b872dd60e01b179052610e449385169286906116679085906000611e498383611e9c565b90508051600014158015611e6e575080806020019051810190611e6c91906127f1565b155b15611e9757604051635274afe760e01b81526001600160a01b03841660048201526024016107e4565b505050565b6060611eaa83836000611eb1565b9392505050565b606081471015611ed65760405163cd78605960e01b81523060048201526024016107e4565b600080856001600160a01b03168486604051611ef29190612ba2565b60006040518083038185875af1925050503d8060008114611f2f576040519150601f19603f3d011682016040523d82523d6000602084013e611f34565b606091505b50915091506116ec868383606082611f5457611f4f82611f9b565b611eaa565b8151158015611f6b57506001600160a01b0384163b155b15611f9457604051639996b31560e01b81526001600160a01b03851660048201526024016107e4565b5080611eaa565b805115611fab5780518082602001fd5b604051630a12f52160e11b815260040160405180910390fd5b82805482825590600052602060002090810192821561200a579160200282015b8281111561200a5782518290611ffa9082612972565b5091602001919060010190611fe4565b50611d0c92915061205d565b60405180606001604052806000801916815260200160006001600160401b03168152602001612058604051806040016040528060008152602001600081525090565b905290565b80821115611d0c576000612071828261207a565b5060010161205d565b50805461208690612888565b6000825580601f10612096575050565b601f0160209004906000526020600020908101906118e391905b80821115611d0c57600081556001016120b0565b600080604083850312156120d757600080fd5b50508035926020909101359150565b6001600160a01b03811681146118e357600080fd5b6000806040838503121561210e57600080fd5b823591506020830135612120816120e6565b809150509250929050565b6000806040838503121561213e57600080fd5b8235612149816120e6565b946020939093013593505050565b60006020828403121561216957600080fd5b5035919050565b60006020828403121561218257600080fd5b8135611eaa816120e6565b60008151808452602080850194506020840160005b838110156121be578151875295820195908201906001016121a2565b509495945050505050565b602081526000611eaa602083018461218d565b6000606082840312156121ee57600080fd5b50919050565b60008083601f84011261220657600080fd5b5081356001600160401b0381111561221d57600080fd5b60208301915083602082850101111561223557600080fd5b9250929050565b600080600080600080600060e0888a03121561225757600080fd5b61226189896121dc565b96506060880135955060808801356001600160401b038082111561228457600080fd5b6122908b838c016121f4565b909750955060a08a013591506122a5826120e6565b90935060c089013590808211156122bb57600080fd5b506122c88a828b016121f4565b989b979a50959850939692959293505050565b803563ffffffff811681146122ef57600080fd5b919050565b6000806040838503121561230757600080fd5b612149836122db565b634e487b7160e01b600052604160045260246000fd5b604051601f8201601f191681016001600160401b038111828210171561234e5761234e612310565b604052919050565b60006001600160401b0383111561236f5761236f612310565b612382601f8401601f1916602001612326565b905082815283838301111561239657600080fd5b828260208301376000602084830101529392505050565b600082601f8301126123be57600080fd5b611eaa83833560208501612356565b80151581146118e357600080fd5b80356122ef816123cd565b60008060008060008060c087890312156123ff57600080fd5b6001600160401b03808835111561241557600080fd5b8735880189601f82011261242857600080fd5b803560208382111561243c5761243c612310565b8160051b61244b828201612326565b928352838101820192828101908e85111561246557600080fd5b83860192505b8483101561249f57868335111561248157600080fd5b6124908f8585358901016123ad565b8252918301919083019061246b565b9b5050508a013597505050604088013594505060608701359250608087013591506124cc60a088016123db565b90509295509295509295565b60005b838110156124f35781810151838201526020016124db565b50506000910152565b600081518084526125148160208601602086016124d8565b601f01601f19169290920160200192915050565b600060208083016020845280855180835260408601915060408160051b87010192506020870160005b8281101561257f57603f1988860301845261256d8583516124fc565b94509285019290850190600101612551565b5092979650505050505050565b602081526000611eaa60208301846124fc565b60008060008060a085870312156125b557600080fd5b6125bf86866121dc565b935060608501356001600160401b038111156125da57600080fd5b6125e6878288016121f4565b90945092505060808501356125fa816120e6565b939692955090935050565b60006020828403121561261757600080fd5b611eaa826122db565b604080825283519082018190526000906020906060840190828701845b828110156126625781516001600160a01b03168452928401929084019060010161263d565b50505083810360208501526116ec818661218d565b6000806000806060858703121561268d57600080fd5b612696856122db565b935060208501356001600160401b03808211156126b257600080fd5b6126be888389016123ad565b945060408701359150808211156126d457600080fd5b506126e1878288016121f4565b95989497509550505050565b6000608082019050825182526001600160401b0360208401511660208301526040830151612728604084018280518252602090810151910152565b5092915050565b6000806000806080858703121561274557600080fd5b61274e856122db565b935060208501356001600160401b038082111561276a57600080fd5b612776888389016123ad565b9450604087013591508082111561278c57600080fd5b508501601f8101871361279e57600080fd5b6127ad87823560208401612356565b92505060608501356125fa816123cd565b815181526020808301519082015260408101610973565b6000606082840312156127e757600080fd5b611eaa83836121dc565b60006020828403121561280357600080fd5b8151611eaa816123cd565b634e487b7160e01b600052601160045260246000fd5b808201808211156109735761097361280e565b634e487b7160e01b600052603260045260246000fd5b60006001820161285f5761285f61280e565b5060010190565b60008261288357634e487b7160e01b600052601260045260246000fd5b500490565b600181811c9082168061289c57607f821691505b6020821081036121ee57634e487b7160e01b600052602260045260246000fd5b818103818111156109735761097361280e565b80820281158282048414176109735761097361280e565b6000602082840312156128f857600080fd5b81356001600160401b0381111561290e57600080fd5b61291a848285016123ad565b949350505050565b601f821115611e97576000816000526020600020601f850160051c8101602086101561294b5750805b601f850160051c820191505b8181101561296a57828155600101612957565b505050505050565b81516001600160401b0381111561298b5761298b612310565b61299f816129998454612888565b84612922565b602080601f8311600181146129d457600084156129bc5750858301515b600019600386901b1c1916600185901b17855561296a565b600085815260208120601f198616915b82811015612a03578886015182559484019460019091019084016129e4565b5085821015612a215787850151600019600388901b60f8161c191681555b5050505050600190811b01905550565b6040815263ffffffff8351166040820152602083015160608201526000604084015160a06080840152612a6760e08401826124fc565b90506060850151603f198483030160a0850152612a8482826124fc565b60809690960151151560c08501525050506001600160a01b039190911660209091015290565b600060408284031215612abc57600080fd5b604051604081018181106001600160401b0382111715612ade57612ade612310565b604052825181526020928301519281019290925250919050565b600060808284031215612b0a57600080fd5b604051606081016001600160401b038282108183111715612b2d57612b2d612310565b8160405284518352602085015191508082168214612b4a57600080fd5b506020820152612b5d8460408501612aaa565b60408201529392505050565b600060408284031215612b7b57600080fd5b611eaa8383612aaa565b600060208284031215612b9757600080fd5b8151611eaa816120e6565b60008251612bb48184602087016124d8565b919091019291505056fea2646970667358221220b65f448af391ee9c1d147656c34c4f04ef48e3e7a75f098bc55dda77d536261f64736f6c63430008160033",
  "devdoc": {
    "errors": {
      "AddressEmptyCode(address)": [
        {
          "details": "There's no code at `target` (it is not a contract)."
        }
      ],
      "AddressInsufficientBalance(address)": [
        {
          "details": "The ETH balance of the account is not enough to perform the operation."
        }
      ],
      "FailedInnerCall()": [
        {
          "details": "A call to an address target failed. The target may have reverted."
        }
      ],
      "OwnableInvalidOwner(address)": [
        {
          "details": "The owner is not a valid owner account. (eg. `address(0)`)"
        }
      ],
      "OwnableUnauthorizedAccount(address)": [
        {
          "details": "The caller account is not authorized to perform an operation."
        }
      ],
      "SafeERC20FailedOperation(address)": [
        {
          "details": "An operation with an ERC20 token failed."
        }
      ]
    },
    "kind": "dev",
    "methods": {
      "allowInitializePath((uint32,bytes32,uint64))": {
        "details": "This indicates to the endpoint that the OApp has enabled msgs for this particular path to be received.This defaults to assuming if a peer has been set, its initialized. Can be overridden by the OApp if there is other logic to determine this.",
        "params": {
          "origin": "The origin information containing the source endpoint and sender address."
        },
        "returns": {
          "_0": "Whether the path has been initialized."
        }
      },
      "isComposeMsgSender((uint32,bytes32,uint64),bytes,address)": {
        "details": "_origin The origin information containing the source endpoint and sender address.  - srcEid: The source chain endpoint ID.  - sender: The sender address on the src chain.  - nonce: The nonce of the message._message The lzReceive payload.Applications can optionally choose to implement separate composeMsg senders that are NOT the bridging layer.The default sender IS the OAppReceiver implementer.",
        "params": {
          "_sender": "The sender address."
        },
        "returns": {
          "_0": "isSender Is a valid sender."
        }
      },
      "lzReceive((uint32,bytes32,uint64),bytes32,bytes,address,bytes)": {
        "details": "Entry point for receiving messages or packets from the endpoint.Entry point for receiving msg/packet from the LayerZero endpoint.",
        "params": {
          "_executor": "The address of the executor for the received message.",
          "_extraData": "Additional arbitrary data provided by the corresponding executor.",
          "_guid": "The unique identifier for the received LayerZero message.",
          "_message": "The payload of the received message.",
          "_origin": "The origin information containing the source endpoint and sender address.  - srcEid: The source chain endpoint ID.  - sender: The sender address on the src chain.  - nonce: The nonce of the message."
        }
      },
      "nextNonce(uint32,bytes32)": {
        "details": "_srcEid The source endpoint ID._sender The sender address.The path nonce starts from 1. If 0 is returned it means that there is NO nonce ordered enforcement.Is required by the off-chain executor to determine the OApp expects msg execution is ordered.This is also enforced by the OApp.By default this is NOT enabled. ie. nextNonce is hardcoded to return 0.",
        "returns": {
          "nonce": "The next nonce."
        }
      },
      "oAppVersion()": {
        "returns": {
          "receiverVersion": "The version of the OAppReceiver.sol implementation.",
          "senderVersion": "The version of the OAppSender.sol implementation."
        }
      },
      "owner()": {
        "details": "Returns the address of the current owner."
      },
      "quote(uint32,string,bytes,bool)": {
        "params": {
          "_dstEid": "Destination chain's endpoint ID.",
          "_message": "The message.",
          "_options": "Message execution options (e.g., for sending gas to destination).",
          "_payInLzToken": "Whether to return fee in ZRO token."
        },
        "returns": {
          "fee": "A `MessagingFee` struct containing the calculated gas fee in either the native token or ZRO token."
        }
      },
      "renounceOwnership()": {
        "details": "Leaves the contract without owner. It will not be possible to call `onlyOwner` functions. Can only be called by the current owner. NOTE: Renouncing ownership will leave the contract without an owner, thereby disabling any functionality that is only available to the owner."
      },
      "send(uint32,string,bytes)": {
        "details": "Encodes the message as bytes and sends it using the `_lzSend` internal function.",
        "params": {
          "_dstEid": "The endpoint ID of the destination chain.",
          "_message": "The message string to be sent.",
          "_options": "Additional options for message execution."
        },
        "returns": {
          "receipt": "A `MessagingReceipt` struct containing details of the message sent."
        }
      },
      "setDelegate(address)": {
        "details": "Only the owner/admin of the OApp can call this function.Provides the ability for a delegate to set configs, on behalf of the OApp, directly on the Endpoint contract.",
        "params": {
          "_delegate": "The address of the delegate to be set."
        }
      },
      "setPeer(uint32,bytes32)": {
        "details": "Only the owner/admin of the OApp can call this function.Indicates that the peer is trusted to send LayerZero messages to this OApp.Set this to bytes32(0) to remove the peer address.Peer is a bytes32 to accommodate non-evm chains.",
        "params": {
          "_eid": "The endpoint ID.",
          "_peer": "The address of the peer to be associated with the corresponding endpoint."
        }
      },
      "transferOwnership(address)": {
        "details": "Transfers ownership of the contract to a new account (`newOwner`). Can only be called by the current owner."
      }
    },
    "version": 1
  },
  "userdoc": {
    "kind": "user",
    "methods": {
      "allowInitializePath((uint32,bytes32,uint64))": {
        "notice": "Checks if the path initialization is allowed based on the provided origin."
      },
      "endpoint()": {
        "notice": "Retrieves the LayerZero endpoint associated with the OApp."
      },
      "isComposeMsgSender((uint32,bytes32,uint64),bytes,address)": {
        "notice": "Indicates whether an address is an approved composeMsg sender to the Endpoint."
      },
      "nextNonce(uint32,bytes32)": {
        "notice": "Retrieves the next nonce for a given source endpoint and sender address."
      },
      "oAppVersion()": {
        "notice": "Retrieves the OApp version information."
      },
      "peers(uint32)": {
        "notice": "Retrieves the peer (OApp) associated with a corresponding endpoint."
      },
      "quote(uint32,string,bytes,bool)": {
        "notice": "Quotes the gas needed to pay for the full omnichain transaction in native gas or ZRO token."
      },
      "send(uint32,string,bytes)": {
        "notice": "Sends a message from the source chain to a destination chain."
      },
      "setDelegate(address)": {
        "notice": "Sets the delegate address for the OApp."
      },
      "setPeer(uint32,bytes32)": {
        "notice": "Sets the peer address (OApp instance) for a corresponding endpoint."
      }
    },
    "version": 1
  },
  "storageLayout": {
    "storage": [
      {
        "astId": 1312,
        "contract": "contracts/MyOApp.sol:MyOApp",
        "label": "_owner",
        "offset": 0,
        "slot": "0",
        "type": "t_address"
      },
      {
        "astId": 770,
        "contract": "contracts/MyOApp.sol:MyOApp",
        "label": "peers",
        "offset": 0,
        "slot": "1",
        "type": "t_mapping(t_uint32,t_bytes32)"
      },
      {
        "astId": 2157,
        "contract": "contracts/MyOApp.sol:MyOApp",
        "label": "token",
        "offset": 0,
        "slot": "2",
        "type": "t_contract(IERC20)1529"
      },
      {
        "astId": 2198,
        "contract": "contracts/MyOApp.sol:MyOApp",
        "label": "challengeCounter",
        "offset": 0,
        "slot": "3",
        "type": "t_uint256"
      },
      {
        "astId": 2203,
        "contract": "contracts/MyOApp.sol:MyOApp",
        "label": "challenges",
        "offset": 0,
        "slot": "4",
        "type": "t_mapping(t_uint256,t_struct(Challenge)2196_storage)"
      },
      {
        "astId": 2209,
        "contract": "contracts/MyOApp.sol:MyOApp",
        "label": "sponsorFunds",
        "offset": 0,
        "slot": "5",
        "type": "t_mapping(t_address,t_mapping(t_uint256,t_uint256))"
      },
      {
        "astId": 2212,
        "contract": "contracts/MyOApp.sol:MyOApp",
        "label": "sponsors",
        "offset": 0,
        "slot": "6",
        "type": "t_array(t_address)dyn_storage"
      },
      {
        "astId": 2280,
        "contract": "contracts/MyOApp.sol:MyOApp",
        "label": "data",
        "offset": 0,
        "slot": "7",
        "type": "t_string_storage"
      }
    ],
    "types": {
      "t_address": {
        "encoding": "inplace",
        "label": "address",
        "numberOfBytes": "20"
      },
      "t_array(t_address)dyn_storage": {
        "base": "t_address",
        "encoding": "dynamic_array",
        "label": "address[]",
        "numberOfBytes": "32"
      },
      "t_array(t_string_storage)dyn_storage": {
        "base": "t_string_storage",
        "encoding": "dynamic_array",
        "label": "string[]",
        "numberOfBytes": "32"
      },
      "t_bool": {
        "encoding": "inplace",
        "label": "bool",
        "numberOfBytes": "1"
      },
      "t_bytes32": {
        "encoding": "inplace",
        "label": "bytes32",
        "numberOfBytes": "32"
      },
      "t_contract(IERC20)1529": {
        "encoding": "inplace",
        "label": "contract IERC20",
        "numberOfBytes": "20"
      },
      "t_mapping(t_address,t_mapping(t_uint256,t_uint256))": {
        "encoding": "mapping",
        "key": "t_address",
        "label": "mapping(address => mapping(uint256 => uint256))",
        "numberOfBytes": "32",
        "value": "t_mapping(t_uint256,t_uint256)"
      },
      "t_mapping(t_address,t_uint256)": {
        "encoding": "mapping",
        "key": "t_address",
        "label": "mapping(address => uint256)",
        "numberOfBytes": "32",
        "value": "t_uint256"
      },
      "t_mapping(t_uint256,t_struct(Challenge)2196_storage)": {
        "encoding": "mapping",
        "key": "t_uint256",
        "label": "mapping(uint256 => struct MyOApp.Challenge)",
        "numberOfBytes": "32",
        "value": "t_struct(Challenge)2196_storage"
      },
      "t_mapping(t_uint256,t_uint256)": {
        "encoding": "mapping",
        "key": "t_uint256",
        "label": "mapping(uint256 => uint256)",
        "numberOfBytes": "32",
        "value": "t_uint256"
      },
      "t_mapping(t_uint32,t_bytes32)": {
        "encoding": "mapping",
        "key": "t_uint32",
        "label": "mapping(uint32 => bytes32)",
        "numberOfBytes": "32",
        "value": "t_bytes32"
      },
      "t_string_storage": {
        "encoding": "bytes",
        "label": "string",
        "numberOfBytes": "32"
      },
      "t_struct(Challenge)2196_storage": {
        "encoding": "inplace",
        "label": "struct MyOApp.Challenge",
        "members": [
          {
            "astId": 2159,
            "contract": "contracts/MyOApp.sol:MyOApp",
            "label": "creator",
            "offset": 0,
            "slot": "0",
            "type": "t_address"
          },
          {
            "astId": 2162,
            "contract": "contracts/MyOApp.sol:MyOApp",
            "label": "videoLinks",
            "offset": 0,
            "slot": "1",
            "type": "t_array(t_string_storage)dyn_storage"
          },
          {
            "astId": 2164,
            "contract": "contracts/MyOApp.sol:MyOApp",
            "label": "stakeAmount",
            "offset": 0,
            "slot": "2",
            "type": "t_uint256"
          },
          {
            "astId": 2166,
            "contract": "contracts/MyOApp.sol:MyOApp",
            "label": "repetitions",
            "offset": 0,
            "slot": "3",
            "type": "t_uint256"
          },
          {
            "astId": 2168,
            "contract": "contracts/MyOApp.sol:MyOApp",
            "label": "startTime",
            "offset": 0,
            "slot": "4",
            "type": "t_uint256"
          },
          {
            "astId": 2170,
            "contract": "contracts/MyOApp.sol:MyOApp",
            "label": "duration",
            "offset": 0,
            "slot": "5",
            "type": "t_uint256"
          },
          {
            "astId": 2172,
            "contract": "contracts/MyOApp.sol:MyOApp",
            "label": "isOpenForSponsors",
            "offset": 0,
            "slot": "6",
            "type": "t_bool"
          },
          {
            "astId": 2174,
            "contract": "contracts/MyOApp.sol:MyOApp",
            "label": "rewardsDistributed",
            "offset": 1,
            "slot": "6",
            "type": "t_bool"
          },
          {
            "astId": 2178,
            "contract": "contracts/MyOApp.sol:MyOApp",
            "label": "userStakes",
            "offset": 0,
            "slot": "7",
            "type": "t_mapping(t_address,t_uint256)"
          },
          {
            "astId": 2182,
            "contract": "contracts/MyOApp.sol:MyOApp",
            "label": "userProgress",
            "offset": 0,
            "slot": "8",
            "type": "t_mapping(t_address,t_uint256)"
          },
          {
            "astId": 2186,
            "contract": "contracts/MyOApp.sol:MyOApp",
            "label": "userStakeReturned",
            "offset": 0,
            "slot": "9",
            "type": "t_mapping(t_address,t_uint256)"
          },
          {
            "astId": 2189,
            "contract": "contracts/MyOApp.sol:MyOApp",
            "label": "participants",
            "offset": 0,
            "slot": "10",
            "type": "t_array(t_address)dyn_storage"
          },
          {
            "astId": 2191,
            "contract": "contracts/MyOApp.sol:MyOApp",
            "label": "totalStakeAmount",
            "offset": 0,
            "slot": "11",
            "type": "t_uint256"
          },
          {
            "astId": 2193,
            "contract": "contracts/MyOApp.sol:MyOApp",
            "label": "totalSponsoredAmount",
            "offset": 0,
            "slot": "12",
            "type": "t_uint256"
          },
          {
            "astId": 2195,
            "contract": "contracts/MyOApp.sol:MyOApp",
            "label": "totalPenalizedAmount",
            "offset": 0,
            "slot": "13",
            "type": "t_uint256"
          }
        ],
        "numberOfBytes": "448"
      },
      "t_uint256": {
        "encoding": "inplace",
        "label": "uint256",
        "numberOfBytes": "32"
      },
      "t_uint32": {
        "encoding": "inplace",
        "label": "uint32",
        "numberOfBytes": "4"
      }
    }
  }
}