{
  "address": "0xBef40B186aBAfc453a1BA72E90a2D01e9B97A9a3",
  "abi": [
    {
      "inputs": [
        {
          "internalType": "address",
          "name": "_endpoint",
          "type": "address"
        },
        {
          "internalType": "address",
          "name": "_delegate",
          "type": "address"
        }
      ],
      "stateMutability": "nonpayable",
      "type": "constructor"
    },
    {
      "inputs": [
        {
          "internalType": "address",
          "name": "target",
          "type": "address"
        }
      ],
      "name": "AddressEmptyCode",
      "type": "error"
    },
    {
      "inputs": [
        {
          "internalType": "address",
          "name": "account",
          "type": "address"
        }
      ],
      "name": "AddressInsufficientBalance",
      "type": "error"
    },
    {
      "inputs": [],
      "name": "FailedInnerCall",
      "type": "error"
    },
    {
      "inputs": [],
      "name": "InvalidDelegate",
      "type": "error"
    },
    {
      "inputs": [],
      "name": "InvalidEndpointCall",
      "type": "error"
    },
    {
      "inputs": [],
      "name": "LzTokenUnavailable",
      "type": "error"
    },
    {
      "inputs": [
        {
          "internalType": "uint32",
          "name": "eid",
          "type": "uint32"
        }
      ],
      "name": "NoPeer",
      "type": "error"
    },
    {
      "inputs": [
        {
          "internalType": "uint256",
          "name": "msgValue",
          "type": "uint256"
        }
      ],
      "name": "NotEnoughNative",
      "type": "error"
    },
    {
      "inputs": [
        {
          "internalType": "address",
          "name": "addr",
          "type": "address"
        }
      ],
      "name": "OnlyEndpoint",
      "type": "error"
    },
    {
      "inputs": [
        {
          "internalType": "uint32",
          "name": "eid",
          "type": "uint32"
        },
        {
          "internalType": "bytes32",
          "name": "sender",
          "type": "bytes32"
        }
      ],
      "name": "OnlyPeer",
      "type": "error"
    },
    {
      "inputs": [
        {
          "internalType": "address",
          "name": "owner",
          "type": "address"
        }
      ],
      "name": "OwnableInvalidOwner",
      "type": "error"
    },
    {
      "inputs": [
        {
          "internalType": "address",
          "name": "account",
          "type": "address"
        }
      ],
      "name": "OwnableUnauthorizedAccount",
      "type": "error"
    },
    {
      "inputs": [
        {
          "internalType": "address",
          "name": "token",
          "type": "address"
        }
      ],
      "name": "SafeERC20FailedOperation",
      "type": "error"
    },
    {
      "anonymous": false,
      "inputs": [
        {
          "indexed": false,
          "internalType": "uint256",
          "name": "challengeId",
          "type": "uint256"
        },
        {
          "indexed": false,
          "internalType": "address",
          "name": "creator",
          "type": "address"
        },
        {
          "indexed": false,
          "internalType": "uint256",
          "name": "stakeAmount",
          "type": "uint256"
        },
        {
          "indexed": false,
          "internalType": "uint256",
          "name": "repetitions",
          "type": "uint256"
        },
        {
          "indexed": false,
          "internalType": "uint256",
          "name": "startTime",
          "type": "uint256"
        },
        {
          "indexed": false,
          "internalType": "uint256",
          "name": "duration",
          "type": "uint256"
        }
      ],
      "name": "ChallengeCreated",
      "type": "event"
    },
    {
      "anonymous": false,
      "inputs": [
        {
          "indexed": false,
          "internalType": "uint256",
          "name": "challengeId",
          "type": "uint256"
        },
        {
          "indexed": false,
          "internalType": "address",
          "name": "participant",
          "type": "address"
        },
        {
          "indexed": false,
          "internalType": "uint256",
          "name": "stakeAmount",
          "type": "uint256"
        }
      ],
      "name": "ChallengeJoined",
      "type": "event"
    },
    {
      "anonymous": false,
      "inputs": [
        {
          "indexed": false,
          "internalType": "uint256",
          "name": "challengeId",
          "type": "uint256"
        },
        {
          "indexed": false,
          "internalType": "address",
          "name": "sponsor",
          "type": "address"
        },
        {
          "indexed": false,
          "internalType": "uint256",
          "name": "amount",
          "type": "uint256"
        }
      ],
      "name": "ChallengeSponsored",
      "type": "event"
    },
    {
      "anonymous": false,
      "inputs": [
        {
          "indexed": false,
          "internalType": "uint256",
          "name": "challengeId",
          "type": "uint256"
        },
        {
          "indexed": false,
          "internalType": "address",
          "name": "participant",
          "type": "address"
        },
        {
          "indexed": false,
          "internalType": "uint256",
          "name": "progress",
          "type": "uint256"
        }
      ],
      "name": "HabitCompleted",
      "type": "event"
    },
    {
      "anonymous": false,
      "inputs": [
        {
          "indexed": true,
          "internalType": "address",
          "name": "previousOwner",
          "type": "address"
        },
        {
          "indexed": true,
          "internalType": "address",
          "name": "newOwner",
          "type": "address"
        }
      ],
      "name": "OwnershipTransferred",
      "type": "event"
    },
    {
      "anonymous": false,
      "inputs": [
        {
          "indexed": false,
          "internalType": "uint32",
          "name": "eid",
          "type": "uint32"
        },
        {
          "indexed": false,
          "internalType": "bytes32",
          "name": "peer",
          "type": "bytes32"
        }
      ],
      "name": "PeerSet",
      "type": "event"
    },
    {
      "anonymous": false,
      "inputs": [
        {
          "indexed": false,
          "internalType": "uint256",
          "name": "challengeId",
          "type": "uint256"
        },
        {
          "indexed": false,
          "internalType": "uint256",
          "name": "totalParticipants",
          "type": "uint256"
        }
      ],
      "name": "SponsorRewardsDistributed",
      "type": "event"
    },
    {
      "inputs": [
        {
          "components": [
            {
              "internalType": "uint32",
              "name": "srcEid",
              "type": "uint32"
            },
            {
              "internalType": "bytes32",
              "name": "sender",
              "type": "bytes32"
            },
            {
              "internalType": "uint64",
              "name": "nonce",
              "type": "uint64"
            }
          ],
          "internalType": "struct Origin",
          "name": "origin",
          "type": "tuple"
        }
      ],
      "name": "allowInitializePath",
      "outputs": [
        {
          "internalType": "bool",
          "name": "",
          "type": "bool"
        }
      ],
      "stateMutability": "view",
      "type": "function"
    },
    {
      "inputs": [],
      "name": "challengeCounter",
      "outputs": [
        {
          "internalType": "uint256",
          "name": "",
          "type": "uint256"
        }
      ],
      "stateMutability": "view",
      "type": "function"
    },
    {
      "inputs": [
        {
          "internalType": "uint256",
          "name": "",
          "type": "uint256"
        }
      ],
      "name": "challenges",
      "outputs": [
        {
          "internalType": "address",
          "name": "creator",
          "type": "address"
        },
        {
          "internalType": "uint256",
          "name": "stakeAmount",
          "type": "uint256"
        },
        {
          "internalType": "uint256",
          "name": "repetitions",
          "type": "uint256"
        },
        {
          "internalType": "uint256",
          "name": "startTime",
          "type": "uint256"
        },
        {
          "internalType": "uint256",
          "name": "duration",
          "type": "uint256"
        },
        {
          "internalType": "bool",
          "name": "isOpenForSponsors",
          "type": "bool"
        },
        {
          "internalType": "bool",
          "name": "rewardsDistributed",
          "type": "bool"
        },
        {
          "internalType": "uint256",
          "name": "totalStakeAmount",
          "type": "uint256"
        },
        {
          "internalType": "uint256",
          "name": "totalSponsoredAmount",
          "type": "uint256"
        },
        {
          "internalType": "uint256",
          "name": "totalPenalizedAmount",
          "type": "uint256"
        }
      ],
      "stateMutability": "view",
      "type": "function"
    },
    {
      "inputs": [
        {
          "internalType": "uint256",
          "name": "_challengeId",
          "type": "uint256"
        }
      ],
      "name": "completeHabit",
      "outputs": [],
      "stateMutability": "nonpayable",
      "type": "function"
    },
    {
      "inputs": [
        {
          "internalType": "string[]",
          "name": "_videoLinks",
          "type": "string[]"
        },
        {
          "internalType": "uint256",
          "name": "_stakeAmount",
          "type": "uint256"
        },
        {
          "internalType": "uint256",
          "name": "_repetitions",
          "type": "uint256"
        },
        {
          "internalType": "uint256",
          "name": "_startTime",
          "type": "uint256"
        },
        {
          "internalType": "uint256",
          "name": "_duration",
          "type": "uint256"
        },
        {
          "internalType": "bool",
          "name": "_isOpenForSponsors",
          "type": "bool"
        }
      ],
      "name": "createChallenge",
      "outputs": [],
      "stateMutability": "nonpayable",
      "type": "function"
    },
    {
      "inputs": [],
      "name": "data",
      "outputs": [
        {
          "internalType": "string",
          "name": "",
          "type": "string"
        }
      ],
      "stateMutability": "view",
      "type": "function"
    },
    {
      "inputs": [
        {
          "internalType": "uint256",
          "name": "_challengeId",
          "type": "uint256"
        }
      ],
      "name": "distributeSponsorRewards",
      "outputs": [],
      "stateMutability": "nonpayable",
      "type": "function"
    },
    {
      "inputs": [],
      "name": "endpoint",
      "outputs": [
        {
          "internalType": "contract ILayerZeroEndpointV2",
          "name": "",
          "type": "address"
        }
      ],
      "stateMutability": "view",
      "type": "function"
    },
    {
      "inputs": [
        {
          "internalType": "uint256",
          "name": "_challengeId",
          "type": "uint256"
        }
      ],
      "name": "getChallengeVideos",
      "outputs": [
        {
          "internalType": "string[]",
          "name": "",
          "type": "string[]"
        }
      ],
      "stateMutability": "view",
      "type": "function"
    },
    {
      "inputs": [
        {
          "internalType": "uint256",
          "name": "_challengeId",
          "type": "uint256"
        }
      ],
      "name": "getParticipants",
      "outputs": [
        {
          "internalType": "address[]",
          "name": "",
          "type": "address[]"
        },
        {
          "internalType": "uint256[]",
          "name": "",
          "type": "uint256[]"
        }
      ],
      "stateMutability": "view",
      "type": "function"
    },
    {
      "inputs": [
        {
          "internalType": "address",
          "name": "_user",
          "type": "address"
        }
      ],
      "name": "getUserChallenges",
      "outputs": [
        {
          "internalType": "uint256[]",
          "name": "",
          "type": "uint256[]"
        }
      ],
      "stateMutability": "view",
      "type": "function"
    },
    {
      "inputs": [
        {
          "components": [
            {
              "internalType": "uint32",
              "name": "srcEid",
              "type": "uint32"
            },
            {
              "internalType": "bytes32",
              "name": "sender",
              "type": "bytes32"
            },
            {
              "internalType": "uint64",
              "name": "nonce",
              "type": "uint64"
            }
          ],
          "internalType": "struct Origin",
          "name": "",
          "type": "tuple"
        },
        {
          "internalType": "bytes",
          "name": "",
          "type": "bytes"
        },
        {
          "internalType": "address",
          "name": "_sender",
          "type": "address"
        }
      ],
      "name": "isComposeMsgSender",
      "outputs": [
        {
          "internalType": "bool",
          "name": "",
          "type": "bool"
        }
      ],
      "stateMutability": "view",
      "type": "function"
    },
    {
      "inputs": [
        {
          "internalType": "uint256",
          "name": "_challengeId",
          "type": "uint256"
        },
        {
          "internalType": "address",
          "name": "_user",
          "type": "address"
        }
      ],
      "name": "isUserEnrolled",
      "outputs": [
        {
          "internalType": "bool",
          "name": "",
          "type": "bool"
        }
      ],
      "stateMutability": "view",
      "type": "function"
    },
    {
      "inputs": [
        {
          "internalType": "uint256",
          "name": "_challengeId",
          "type": "uint256"
        },
        {
          "internalType": "address",
          "name": "_user",
          "type": "address"
        }
      ],
      "name": "isUserSponsor",
      "outputs": [
        {
          "internalType": "bool",
          "name": "",
          "type": "bool"
        }
      ],
      "stateMutability": "view",
      "type": "function"
    },
    {
      "inputs": [
        {
          "internalType": "uint256",
          "name": "_challengeId",
          "type": "uint256"
        }
      ],
      "name": "joinChallenge",
      "outputs": [],
      "stateMutability": "nonpayable",
      "type": "function"
    },
    {
      "inputs": [
        {
          "components": [
            {
              "internalType": "uint32",
              "name": "srcEid",
              "type": "uint32"
            },
            {
              "internalType": "bytes32",
              "name": "sender",
              "type": "bytes32"
            },
            {
              "internalType": "uint64",
              "name": "nonce",
              "type": "uint64"
            }
          ],
          "internalType": "struct Origin",
          "name": "_origin",
          "type": "tuple"
        },
        {
          "internalType": "bytes32",
          "name": "_guid",
          "type": "bytes32"
        },
        {
          "internalType": "bytes",
          "name": "_message",
          "type": "bytes"
        },
        {
          "internalType": "address",
          "name": "_executor",
          "type": "address"
        },
        {
          "internalType": "bytes",
          "name": "_extraData",
          "type": "bytes"
        }
      ],
      "name": "lzReceive",
      "outputs": [],
      "stateMutability": "payable",
      "type": "function"
    },
    {
      "inputs": [
        {
          "internalType": "uint32",
          "name": "",
          "type": "uint32"
        },
        {
          "internalType": "bytes32",
          "name": "",
          "type": "bytes32"
        }
      ],
      "name": "nextNonce",
      "outputs": [
        {
          "internalType": "uint64",
          "name": "nonce",
          "type": "uint64"
        }
      ],
      "stateMutability": "view",
      "type": "function"
    },
    {
      "inputs": [],
      "name": "oAppVersion",
      "outputs": [
        {
          "internalType": "uint64",
          "name": "senderVersion",
          "type": "uint64"
        },
        {
          "internalType": "uint64",
          "name": "receiverVersion",
          "type": "uint64"
        }
      ],
      "stateMutability": "pure",
      "type": "function"
    },
    {
      "inputs": [],
      "name": "owner",
      "outputs": [
        {
          "internalType": "address",
          "name": "",
          "type": "address"
        }
      ],
      "stateMutability": "view",
      "type": "function"
    },
    {
      "inputs": [
        {
          "internalType": "uint32",
          "name": "eid",
          "type": "uint32"
        }
      ],
      "name": "peers",
      "outputs": [
        {
          "internalType": "bytes32",
          "name": "peer",
          "type": "bytes32"
        }
      ],
      "stateMutability": "view",
      "type": "function"
    },
    {
      "inputs": [
        {
          "internalType": "uint256",
          "name": "_challengeId",
          "type": "uint256"
        },
        {
          "internalType": "address",
          "name": "_user",
          "type": "address"
        }
      ],
      "name": "penalizeMissedRepetition",
      "outputs": [],
      "stateMutability": "nonpayable",
      "type": "function"
    },
    {
      "inputs": [
        {
          "internalType": "uint32",
          "name": "_dstEid",
          "type": "uint32"
        },
        {
          "internalType": "string",
          "name": "_message",
          "type": "string"
        },
        {
          "internalType": "bytes",
          "name": "_options",
          "type": "bytes"
        },
        {
          "internalType": "bool",
          "name": "_payInLzToken",
          "type": "bool"
        }
      ],
      "name": "quote",
      "outputs": [
        {
          "components": [
            {
              "internalType": "uint256",
              "name": "nativeFee",
              "type": "uint256"
            },
            {
              "internalType": "uint256",
              "name": "lzTokenFee",
              "type": "uint256"
            }
          ],
          "internalType": "struct MessagingFee",
          "name": "fee",
          "type": "tuple"
        }
      ],
      "stateMutability": "view",
      "type": "function"
    },
    {
      "inputs": [],
      "name": "renounceOwnership",
      "outputs": [],
      "stateMutability": "nonpayable",
      "type": "function"
    },
    {
      "inputs": [
        {
          "internalType": "uint32",
          "name": "_dstEid",
          "type": "uint32"
        },
        {
          "internalType": "string",
          "name": "_message",
          "type": "string"
        },
        {
          "internalType": "bytes",
          "name": "_options",
          "type": "bytes"
        }
      ],
      "name": "send",
      "outputs": [
        {
          "components": [
            {
              "internalType": "bytes32",
              "name": "guid",
              "type": "bytes32"
            },
            {
              "internalType": "uint64",
              "name": "nonce",
              "type": "uint64"
            },
            {
              "components": [
                {
                  "internalType": "uint256",
                  "name": "nativeFee",
                  "type": "uint256"
                },
                {
                  "internalType": "uint256",
                  "name": "lzTokenFee",
                  "type": "uint256"
                }
              ],
              "internalType": "struct MessagingFee",
              "name": "fee",
              "type": "tuple"
            }
          ],
          "internalType": "struct MessagingReceipt",
          "name": "receipt",
          "type": "tuple"
        }
      ],
      "stateMutability": "payable",
      "type": "function"
    },
    {
      "inputs": [
        {
          "internalType": "address",
          "name": "_delegate",
          "type": "address"
        }
      ],
      "name": "setDelegate",
      "outputs": [],
      "stateMutability": "nonpayable",
      "type": "function"
    },
    {
      "inputs": [
        {
          "internalType": "uint32",
          "name": "_eid",
          "type": "uint32"
        },
        {
          "internalType": "bytes32",
          "name": "_peer",
          "type": "bytes32"
        }
      ],
      "name": "setPeer",
      "outputs": [],
      "stateMutability": "nonpayable",
      "type": "function"
    },
    {
      "inputs": [
        {
          "internalType": "uint256",
          "name": "_challengeId",
          "type": "uint256"
        },
        {
          "internalType": "uint256",
          "name": "_amount",
          "type": "uint256"
        }
      ],
      "name": "sponsorChallenge",
      "outputs": [],
      "stateMutability": "nonpayable",
      "type": "function"
    },
    {
      "inputs": [
        {
          "internalType": "address",
          "name": "",
          "type": "address"
        },
        {
          "internalType": "uint256",
          "name": "",
          "type": "uint256"
        }
      ],
      "name": "sponsorFunds",
      "outputs": [
        {
          "internalType": "uint256",
          "name": "",
          "type": "uint256"
        }
      ],
      "stateMutability": "view",
      "type": "function"
    },
    {
      "inputs": [
        {
          "internalType": "uint256",
          "name": "",
          "type": "uint256"
        }
      ],
      "name": "sponsors",
      "outputs": [
        {
          "internalType": "address",
          "name": "",
          "type": "address"
        }
      ],
      "stateMutability": "view",
      "type": "function"
    },
    {
      "inputs": [],
      "name": "token",
      "outputs": [
        {
          "internalType": "contract IERC20",
          "name": "",
          "type": "address"
        }
      ],
      "stateMutability": "view",
      "type": "function"
    },
    {
      "inputs": [
        {
          "internalType": "address",
          "name": "newOwner",
          "type": "address"
        }
      ],
      "name": "transferOwnership",
      "outputs": [],
      "stateMutability": "nonpayable",
      "type": "function"
    }
  ],
  "transactionHash": "0xc344cd4041ac48d46a4db5ef47801ee89a54c5fdcec407d2729eec57caf60667",
  "args": [
    "0x6EDCE65403992e310A62460808c4b910D972f10f",
    "0x75d183d150286DB34228faCb0402748627155E3C"
  ],
  "numDeployments": 2,
  "solcInputHash": "a887fba7f9c753200361432ddca74569",
  "bytecode": "0x60e0604052601560a09081527f4e6f7468696e67207265636569766564207965742e000000000000000000000060c0526007906200003e908262000268565b503480156200004c57600080fd5b5060405162002e9138038062002e918339810160408190526200006f9162000351565b81818181806001600160a01b038116620000a357604051631e4fbdf760e01b81526000600482015260240160405180910390fd5b620000ae8162000171565b506001600160a01b038083166080528116620000dd57604051632d618d8160e21b815260040160405180910390fd5b60805160405163ca5eb5e160e01b81526001600160a01b0383811660048301529091169063ca5eb5e190602401600060405180830381600087803b1580156200012557600080fd5b505af11580156200013a573d6000803e3d6000fd5b5050600280546001600160a01b031916731c7d4b196cb0c7b01d743fbc6116a902379c723817905550620003899650505050505050565b600080546001600160a01b038381166001600160a01b0319831681178455604051919092169283917f8be0079c531659141344cd1fd0a4f28419497f9722a3daafe3b4186f6b6457e09190a35050565b634e487b7160e01b600052604160045260246000fd5b600181811c90821680620001ec57607f821691505b6020821081036200020d57634e487b7160e01b600052602260045260246000fd5b50919050565b601f82111562000263576000816000526020600020601f850160051c810160208610156200023e5750805b601f850160051c820191505b818110156200025f578281556001016200024a565b5050505b505050565b81516001600160401b03811115620002845762000284620001c1565b6200029c81620002958454620001d7565b8462000213565b602080601f831160018114620002d45760008415620002bb5750858301515b600019600386901b1c1916600185901b1785556200025f565b600085815260208120601f198616915b828110156200030557888601518255948401946001909101908401620002e4565b5085821015620003245787850151600019600388901b60f8161c191681555b5050505050600190811b01905550565b80516001600160a01b03811681146200034c57600080fd5b919050565b600080604083850312156200036557600080fd5b620003708362000334565b9150620003806020840162000334565b90509250929050565b608051612ac2620003cf6000396000818161037b01528181610d4e0152818161140b015281816119fd01528181611aeb01528181611be20152611c990152612ac26000f3fe6080604052600436106101d85760003560e01c80638da5cb5b11610102578063e0539e5811610095578063f77e5dd311610064578063f77e5dd3146106c5578063f7fed02c146106f2578063fc0c546a14610708578063ff7bd03d1461072857600080fd5b8063e0539e5814610623578063e448ee2614610643578063f268475f14610663578063f2fde38b146106a557600080fd5b8063bd250ff3116100d1578063bd250ff314610595578063c1e3bd3e146105b5578063ca5eb5e1146105e3578063d0350eca1461060357600080fd5b80638da5cb5b146104565780638f1d37761461047457806393066b4c14610548578063bb0b6a531461056857600080fd5b80633400288b1161017a578063715018a611610149578063715018a6146103b557806373d4a13a146103ca5780637d25a05e146103ec57806382413eac1461042757600080fd5b80633400288b146102fc5780633bd7c7441461031c57806343aab9101461033c5780635e280f111461036957600080fd5b80630ede6c84116101b65780630ede6c841461027a57806311da8e541461029a57806313137d65146102c757806317442b70146102da57600080fd5b8063040866bc146101dd578063064956d7146101ff5780630c90ed5614610234575b600080fd5b3480156101e957600080fd5b506101fd6101f8366004611f92565b610748565b005b34801561020b57600080fd5b5061021f61021a366004611fc9565b61091f565b60405190151581526020015b60405180910390f35b34801561024057600080fd5b5061026c61024f366004611ff9565b600560209081526000928352604080842090915290825290205481565b60405190815260200161022b565b34801561028657600080fd5b506101fd610295366004612025565b61094e565b3480156102a657600080fd5b506102ba6102b536600461203e565b610c29565b60405161022b9190612097565b6101fd6102d536600461210a565b610d4c565b3480156102e657600080fd5b506040805160018152600260208201520161022b565b34801561030857600080fd5b506101fd6103173660046121c2565b610e07565b34801561032857600080fd5b506101fd6103373660046122b4565b610e1d565b34801561034857600080fd5b5061035c610357366004612025565b610ef8565b60405161022b91906123f6565b34801561037557600080fd5b5061039d7f000000000000000000000000000000000000000000000000000000000000000081565b6040516001600160a01b03909116815260200161022b565b3480156103c157600080fd5b506101fd610fe2565b3480156103d657600080fd5b506103df610ff6565b60405161022b919061245a565b3480156103f857600080fd5b5061040f6104073660046121c2565b600092915050565b6040516001600160401b03909116815260200161022b565b34801561043357600080fd5b5061021f61044236600461246d565b6001600160a01b0381163014949350505050565b34801561046257600080fd5b506000546001600160a01b031661039d565b34801561048057600080fd5b506104f061048f366004612025565b60046020819052600091825260409091208054600282015460038301549383015460058401546006850154600b860154600c870154600d909701546001600160a01b0390961697949694959394929360ff808416946101009094041692908a565b604080516001600160a01b03909b168b5260208b01999099529789019690965260608801949094526080870192909252151560a0860152151560c085015260e08401526101008301526101208201526101400161022b565b34801561055457600080fd5b5061039d610563366004612025565b611084565b34801561057457600080fd5b5061026c6105833660046124d3565b60016020526000908152604090205481565b3480156105a157600080fd5b506101fd6105b0366004612025565b6110ae565b3480156105c157600080fd5b506105d56105d0366004612025565b611270565b60405161022b9291906124ee565b3480156105ef57600080fd5b506101fd6105fe36600461203e565b6113e4565b34801561060f57600080fd5b506101fd61061e366004611fc9565b61146a565b610636610631366004612545565b61153b565b60405161022b91906125bb565b34801561064f57600080fd5b506101fd61065e366004612025565b6115c4565b34801561066f57600080fd5b5061021f61067e366004611fc9565b6001600160a01b031660009081526005602090815260408083209383529290522054151590565b3480156106b157600080fd5b506101fd6106c036600461203e565b611776565b3480156106d157600080fd5b506106e56106e03660046125fd565b6117b4565b60405161022b919061268c565b3480156106fe57600080fd5b5061026c60035481565b34801561071457600080fd5b5060025461039d906001600160a01b031681565b34801561073457600080fd5b5061021f6107433660046126a3565b6117f8565b6000828152600460205260409020600681015460ff166107c25760405162461bcd60e51b815260206004820152602a60248201527f54686973206368616c6c656e6765206973206e6f74206f70656e20666f7220736044820152690706f6e736f72736869760b41b60648201526084015b60405180910390fd5b6002546040516323b872dd60e01b8152336004820152306024820152604481018490526001600160a01b03909116906323b872dd906064016020604051808303816000875af1158015610819573d6000803e3d6000fd5b505050506040513d601f19601f8201168201806040525081019061083d91906126bf565b503360009081526005602090815260408083208684529091529020546108649083906126f2565b336000908152600560209081526040808320878452909152902055600c81015461088f9083906126f2565b600c820155600680546001810182556000919091527ff652222313e28459528d920b65115c16c04f3efc82aaedc97be59f3f377c0d3f0180546001600160a01b0319163390811790915560408051858152602081019290925281018390527fd61e368466129876e3a075a32c149777adaf7359be748015eaa01fbc3eae2af69060600160405180910390a1505050565b60008281526004602090815260408083206001600160a01b038516845260070190915290205415155b92915050565b61095661182e565b60008181526004602052604090206006810154610100900460ff16156109d55760405162461bcd60e51b815260206004820152602e60248201527f5265776172647320616c726561647920646973747269627574656420666f722060448201526d74686973206368616c6c656e676560901b60648201526084016107b9565b6000806109e18461185b565b905060005b8151811015610a50578360030154846008016000848481518110610a0c57610a0c612705565b60200260200101516001600160a01b03166001600160a01b031681526020019081526020016000205403610a485782610a448161271b565b9350505b6001016109e6565b5060005b600654811015610bd857600060068281548110610a7357610a73612705565b60009182526020808320909101546001600160a01b03168083526005825260408084208a85529092529120549091508015801590610ab15750600085115b15610bce576000610ac28683612734565b905060005b8551811015610bcb578760030154886008016000888481518110610aed57610aed612705565b60200260200101516001600160a01b03166001600160a01b031681526020019081526020016000205403610bc35760025486516001600160a01b039091169063a9059cbb90889084908110610b4457610b44612705565b6020026020010151846040518363ffffffff1660e01b8152600401610b7e9291906001600160a01b03929092168252602082015260400190565b6020604051808303816000875af1158015610b9d573d6000803e3d6000fd5b505050506040513d601f19601f82011682018060405250810190610bc191906126bf565b505b600101610ac7565b50505b5050600101610a54565b5060068301805461ff00191661010017905560408051858152602081018490527fde61f49cd78aa3da8b2a35849a4ee8ea76fde270ce78741b012e03267f7ab285910160405180910390a150505050565b6060600060015b6003548111610c845760008181526004602090815260408083206001600160a01b038816845260070190915290205415610c725781610c6e8161271b565b9250505b80610c7c8161271b565b915050610c30565b506000816001600160401b03811115610c9f57610c9f6121de565b604051908082528060200260200182016040528015610cc8578160200160208202803683370190505b509050600060015b6003548111610d425760008181526004602090815260408083206001600160a01b038a16845260070190915290205415610d305780838381518110610d1757610d17612705565b602090810291909101015281610d2c8161271b565b9250505b80610d3a8161271b565b915050610cd0565b5090949350505050565b7f00000000000000000000000000000000000000000000000000000000000000006001600160a01b03163314610d97576040516391ac5e4f60e01b81523360048201526024016107b9565b60208701803590610db190610dac908a6124d3565b6118cd565b14610def57610dc360208801886124d3565b60405163309afaf360e21b815263ffffffff9091166004820152602088013560248201526044016107b9565b610dfe87878787878787611909565b50505050505050565b610e0f61182e565b610e19828261192c565b5050565b600354610e2b9060016126f2565b6003819055600090815260046020908152604090912080546001600160a01b0319163317815587519091610e669160018401918a0190611e92565b50600281018690556003808201869055600482018590556005820184905560068201805461ffff191684151561ff00191617905554604080519182523360208301528101879052606081018690526080810185905260a081018490527fddb0285bd457d774e6947556c6095f7349e583bcb78434f9ea0ce5b98e522d3f9060c00160405180910390a150505050505050565b600081815260046020908152604080832060018101805483518186028101860190945280845260609592949192909184015b82821015610fd6578382906000526020600020018054610f4990612756565b80601f0160208091040260200160405190810160405280929190818152602001828054610f7590612756565b8015610fc25780601f10610f9757610100808354040283529160200191610fc2565b820191906000526020600020905b815481529060010190602001808311610fa557829003601f168201915b505050505081526020019060010190610f2a565b50505050915050919050565b610fea61182e565b610ff4600061197a565b565b6007805461100390612756565b80601f016020809104026020016040519081016040528092919081815260200182805461102f90612756565b801561107c5780601f106110515761010080835404028352916020019161107c565b820191906000526020600020905b81548152906001019060200180831161105f57829003601f168201915b505050505081565b6006818154811061109457600080fd5b6000918252602090912001546001600160a01b0316905081565b600081815260046020908152604080832033845260078101909252909120546111245760405162461bcd60e51b815260206004820152602260248201527f5573657220686173206e6f74206a6f696e65642074686973206368616c6c656e604482015261676560f01b60648201526084016107b9565b3360009081526008820160205260409020546111419060016126f2565b3360009081526008830160205260409020819055600382015411611209576002543360008181526007840160205260409081902054905163a9059cbb60e01b8152600481019290925260248201526001600160a01b039091169063a9059cbb906044016020604051808303816000875af11580156111c3573d6000803e3d6000fd5b505050506040513d601f19601f820116820180604052508101906111e791906126bf565b5033600090815260078201602090815260408083205460098501909252909120555b336000818152600883016020526040908190205490517fb101278bc15bf98030d854df5dd96ccb0d6bb079469b6da43159da5f55bf61df92611264928683526001600160a01b03919091166020830152604082015260600190565b60405180910390a15050565b6000818152600460205260408120600a81015460609283929190816001600160401b038111156112a2576112a26121de565b6040519080825280602002602001820160405280156112cb578160200160208202803683370190505b5090506000826001600160401b038111156112e8576112e86121de565b604051908082528060200260200182016040528015611311578160200160208202803683370190505b50905060005b838110156113d757600085600a01828154811061133657611336612705565b9060005260206000200160009054906101000a90046001600160a01b031690508084838151811061136957611369612705565b60200260200101906001600160a01b031690816001600160a01b031681525050856008016000826001600160a01b03166001600160a01b03168152602001908152602001600020548383815181106113c3576113c3612705565b602090810291909101015250600101611317565b5090969095509350505050565b6113ec61182e565b60405163ca5eb5e160e01b81526001600160a01b0382811660048301527f0000000000000000000000000000000000000000000000000000000000000000169063ca5eb5e190602401600060405180830381600087803b15801561144f57600080fd5b505af1158015611463573d6000803e3d6000fd5b5050505050565b61147261182e565b6000828152600460205260408120600381015460028201549192916114979190612734565b60038301546001600160a01b03851660009081526008850160205260409020549192501115611535576001600160a01b038316600090815260088301602052604090205460038301546114ea919061278a565b6114f4908261279d565b6001600160a01b0384166000908152600784016020526040902054611519919061278a565b6001600160a01b03841660009081526007840160205260409020555b50505050565b611543611ee4565b600084604051602001611556919061245a565b60408051601f198184030181526020601f870181900481028401810190925285835292506115ba9188918491908890889081908401838280828437600092018290525060408051808201909152348152602081019190915292503391506119ca9050565b9695505050505050565b600081815260046020908152604080832033845260078101909252909120541561163f5760405162461bcd60e51b815260206004820152602660248201527f557365722068617320616c7265616479206a6f696e65642074686973206368616044820152656c6c656e676560d01b60648201526084016107b9565b60028054908201546040516323b872dd60e01b815233600482015230602482015260448101919091526001600160a01b03909116906323b872dd906064016020604051808303816000875af115801561169c573d6000803e3d6000fd5b505050506040513d601f19601f820116820180604052508101906116c091906126bf565b506002810180543360009081526007840160209081526040808320939093556008850181528282208290556009850190529081205554600b82015461170591906126f2565b600b820155600a8101805460018101825560009182526020918290200180546001600160a01b0319163390811790915560028301546040805186815293840192909252908201527f44c4b6abb371768de3a7756bdb12fd74800a75207fae3d12f5bcd7a7bc4fcee990606001611264565b61177e61182e565b6001600160a01b0381166117a857604051631e4fbdf760e01b8152600060048201526024016107b9565b6117b18161197a565b50565b60408051808201909152600080825260208201526000846040516020016117db919061245a565b60405160208183030381529060405290506115ba86828686611ad5565b600060208201803590600190839061181090866124d3565b63ffffffff1681526020810191909152604001600020541492915050565b6000546001600160a01b03163314610ff45760405163118cdaa760e01b81523360048201526024016107b9565b600081815260046020908152604091829020600a8101805484518185028101850190955280855260609492938301828280156118c057602002820191906000526020600020905b81546001600160a01b031681526001909101906020018083116118a2575b5050505050915050919050565b63ffffffff8116600090815260016020526040812054806109485760405163f6ff4fb760e01b815263ffffffff841660048201526024016107b9565b611915848601866127b4565b6007906119229082612840565b5050505050505050565b63ffffffff8216600081815260016020908152604091829020849055815192835282018390527f238399d427b947898edb290f5ff0f9109849b1c3ba196a42e35f00c50a54b98b9101611264565b600080546001600160a01b038381166001600160a01b0319831681178455604051919092169283917f8be0079c531659141344cd1fd0a4f28419497f9722a3daafe3b4186f6b6457e09190a35050565b6119d2611ee4565b60006119e18460000151611bb6565b6020850151909150156119fb576119fb8460200151611bde565b7f00000000000000000000000000000000000000000000000000000000000000006001600160a01b0316632637a450826040518060a001604052808b63ffffffff168152602001611a4b8c6118cd565b81526020018a815260200189815260200160008960200151111515815250866040518463ffffffff1660e01b8152600401611a879291906128ff565b60806040518083038185885af1158015611aa5573d6000803e3d6000fd5b50505050506040513d601f19601f82011682018060405250810190611aca91906129c6565b979650505050505050565b60408051808201909152600080825260208201527f00000000000000000000000000000000000000000000000000000000000000006001600160a01b031663ddc28c586040518060a001604052808863ffffffff168152602001611b38896118cd565b8152602001878152602001868152602001851515815250306040518363ffffffff1660e01b8152600401611b6d9291906128ff565b6040805180830381865afa158015611b89573d6000803e3d6000fd5b505050506040513d601f19601f82011682018060405250810190611bad9190612a37565b95945050505050565b6000813414611bda576040516304fb820960e51b81523460048201526024016107b9565b5090565b60007f00000000000000000000000000000000000000000000000000000000000000006001600160a01b031663e4fe1d946040518163ffffffff1660e01b8152600401602060405180830381865afa158015611c3e573d6000803e3d6000fd5b505050506040513d601f19601f82011682018060405250810190611c629190612a53565b90506001600160a01b038116611c8b576040516329b99a9560e11b815260040160405180910390fd5b6040805133602482018190527f00000000000000000000000000000000000000000000000000000000000000006001600160a01b03818116604485015260648085018890528551808603909101815260849094019094526020830180516001600160e01b03166323b872dd60e01b179052610e199385169286906115359085906000611d178383611d6a565b90508051600014158015611d3c575080806020019051810190611d3a91906126bf565b155b15611d6557604051635274afe760e01b81526001600160a01b03841660048201526024016107b9565b505050565b6060611d7883836000611d7f565b9392505050565b606081471015611da45760405163cd78605960e01b81523060048201526024016107b9565b600080856001600160a01b03168486604051611dc09190612a70565b60006040518083038185875af1925050503d8060008114611dfd576040519150601f19603f3d011682016040523d82523d6000602084013e611e02565b606091505b50915091506115ba868383606082611e2257611e1d82611e69565b611d78565b8151158015611e3957506001600160a01b0384163b155b15611e6257604051639996b31560e01b81526001600160a01b03851660048201526024016107b9565b5080611d78565b805115611e795780518082602001fd5b604051630a12f52160e11b815260040160405180910390fd5b828054828255906000526020600020908101928215611ed8579160200282015b82811115611ed85782518290611ec89082612840565b5091602001919060010190611eb2565b50611bda929150611f2b565b60405180606001604052806000801916815260200160006001600160401b03168152602001611f26604051806040016040528060008152602001600081525090565b905290565b80821115611bda576000611f3f8282611f48565b50600101611f2b565b508054611f5490612756565b6000825580601f10611f64575050565b601f0160209004906000526020600020908101906117b191905b80821115611bda5760008155600101611f7e565b60008060408385031215611fa557600080fd5b50508035926020909101359150565b6001600160a01b03811681146117b157600080fd5b60008060408385031215611fdc57600080fd5b823591506020830135611fee81611fb4565b809150509250929050565b6000806040838503121561200c57600080fd5b823561201781611fb4565b946020939093013593505050565b60006020828403121561203757600080fd5b5035919050565b60006020828403121561205057600080fd5b8135611d7881611fb4565b60008151808452602080850194506020840160005b8381101561208c57815187529582019590820190600101612070565b509495945050505050565b602081526000611d78602083018461205b565b6000606082840312156120bc57600080fd5b50919050565b60008083601f8401126120d457600080fd5b5081356001600160401b038111156120eb57600080fd5b60208301915083602082850101111561210357600080fd5b9250929050565b600080600080600080600060e0888a03121561212557600080fd5b61212f89896120aa565b96506060880135955060808801356001600160401b038082111561215257600080fd5b61215e8b838c016120c2565b909750955060a08a0135915061217382611fb4565b90935060c0890135908082111561218957600080fd5b506121968a828b016120c2565b989b979a50959850939692959293505050565b803563ffffffff811681146121bd57600080fd5b919050565b600080604083850312156121d557600080fd5b612017836121a9565b634e487b7160e01b600052604160045260246000fd5b604051601f8201601f191681016001600160401b038111828210171561221c5761221c6121de565b604052919050565b60006001600160401b0383111561223d5761223d6121de565b612250601f8401601f19166020016121f4565b905082815283838301111561226457600080fd5b828260208301376000602084830101529392505050565b600082601f83011261228c57600080fd5b611d7883833560208501612224565b80151581146117b157600080fd5b80356121bd8161229b565b60008060008060008060c087890312156122cd57600080fd5b6001600160401b0380883511156122e357600080fd5b8735880189601f8201126122f657600080fd5b803560208382111561230a5761230a6121de565b8160051b6123198282016121f4565b928352838101820192828101908e85111561233357600080fd5b83860192505b8483101561236d57868335111561234f57600080fd5b61235e8f85853589010161227b565b82529183019190830190612339565b9b5050508a0135975050506040880135945050606087013592506080870135915061239a60a088016122a9565b90509295509295509295565b60005b838110156123c15781810151838201526020016123a9565b50506000910152565b600081518084526123e28160208601602086016123a6565b601f01601f19169290920160200192915050565b600060208083016020845280855180835260408601915060408160051b87010192506020870160005b8281101561244d57603f1988860301845261243b8583516123ca565b9450928501929085019060010161241f565b5092979650505050505050565b602081526000611d7860208301846123ca565b60008060008060a0858703121561248357600080fd5b61248d86866120aa565b935060608501356001600160401b038111156124a857600080fd5b6124b4878288016120c2565b90945092505060808501356124c881611fb4565b939692955090935050565b6000602082840312156124e557600080fd5b611d78826121a9565b604080825283519082018190526000906020906060840190828701845b828110156125305781516001600160a01b03168452928401929084019060010161250b565b50505083810360208501526115ba818661205b565b6000806000806060858703121561255b57600080fd5b612564856121a9565b935060208501356001600160401b038082111561258057600080fd5b61258c8883890161227b565b945060408701359150808211156125a257600080fd5b506125af878288016120c2565b95989497509550505050565b6000608082019050825182526001600160401b03602084015116602083015260408301516125f6604084018280518252602090810151910152565b5092915050565b6000806000806080858703121561261357600080fd5b61261c856121a9565b935060208501356001600160401b038082111561263857600080fd5b6126448883890161227b565b9450604087013591508082111561265a57600080fd5b508501601f8101871361266c57600080fd5b61267b87823560208401612224565b92505060608501356124c88161229b565b815181526020808301519082015260408101610948565b6000606082840312156126b557600080fd5b611d7883836120aa565b6000602082840312156126d157600080fd5b8151611d788161229b565b634e487b7160e01b600052601160045260246000fd5b80820180821115610948576109486126dc565b634e487b7160e01b600052603260045260246000fd5b60006001820161272d5761272d6126dc565b5060010190565b60008261275157634e487b7160e01b600052601260045260246000fd5b500490565b600181811c9082168061276a57607f821691505b6020821081036120bc57634e487b7160e01b600052602260045260246000fd5b81810381811115610948576109486126dc565b8082028115828204841417610948576109486126dc565b6000602082840312156127c657600080fd5b81356001600160401b038111156127dc57600080fd5b6127e88482850161227b565b949350505050565b601f821115611d65576000816000526020600020601f850160051c810160208610156128195750805b601f850160051c820191505b8181101561283857828155600101612825565b505050505050565b81516001600160401b03811115612859576128596121de565b61286d816128678454612756565b846127f0565b602080601f8311600181146128a2576000841561288a5750858301515b600019600386901b1c1916600185901b178555612838565b600085815260208120601f198616915b828110156128d1578886015182559484019460019091019084016128b2565b50858210156128ef5787850151600019600388901b60f8161c191681555b5050505050600190811b01905550565b6040815263ffffffff8351166040820152602083015160608201526000604084015160a0608084015261293560e08401826123ca565b90506060850151603f198483030160a085015261295282826123ca565b60809690960151151560c08501525050506001600160a01b039190911660209091015290565b60006040828403121561298a57600080fd5b604051604081018181106001600160401b03821117156129ac576129ac6121de565b604052825181526020928301519281019290925250919050565b6000608082840312156129d857600080fd5b604051606081016001600160401b0382821081831117156129fb576129fb6121de565b8160405284518352602085015191508082168214612a1857600080fd5b506020820152612a2b8460408501612978565b60408201529392505050565b600060408284031215612a4957600080fd5b611d788383612978565b600060208284031215612a6557600080fd5b8151611d7881611fb4565b60008251612a828184602087016123a6565b919091019291505056fea26469706673582212204ca3675a2442f5bae1751f1eaa9d912ad8cf3e6491c3b8ab260129ec7b58439164736f6c63430008160033",
  "devdoc": {
    "errors": {
      "AddressEmptyCode(address)": [
        {
          "details": "There's no code at `target` (it is not a contract)."
        }
      ],
      "AddressInsufficientBalance(address)": [
        {
          "details": "The ETH balance of the account is not enough to perform the operation."
        }
      ],
      "FailedInnerCall()": [
        {
          "details": "A call to an address target failed. The target may have reverted."
        }
      ],
      "OwnableInvalidOwner(address)": [
        {
          "details": "The owner is not a valid owner account. (eg. `address(0)`)"
        }
      ],
      "OwnableUnauthorizedAccount(address)": [
        {
          "details": "The caller account is not authorized to perform an operation."
        }
      ],
      "SafeERC20FailedOperation(address)": [
        {
          "details": "An operation with an ERC20 token failed."
        }
      ]
    },
    "kind": "dev",
    "methods": {
      "allowInitializePath((uint32,bytes32,uint64))": {
        "details": "This indicates to the endpoint that the OApp has enabled msgs for this particular path to be received.This defaults to assuming if a peer has been set, its initialized. Can be overridden by the OApp if there is other logic to determine this.",
        "params": {
          "origin": "The origin information containing the source endpoint and sender address."
        },
        "returns": {
          "_0": "Whether the path has been initialized."
        }
      },
      "isComposeMsgSender((uint32,bytes32,uint64),bytes,address)": {
        "details": "_origin The origin information containing the source endpoint and sender address.  - srcEid: The source chain endpoint ID.  - sender: The sender address on the src chain.  - nonce: The nonce of the message._message The lzReceive payload.Applications can optionally choose to implement separate composeMsg senders that are NOT the bridging layer.The default sender IS the OAppReceiver implementer.",
        "params": {
          "_sender": "The sender address."
        },
        "returns": {
          "_0": "isSender Is a valid sender."
        }
      },
      "lzReceive((uint32,bytes32,uint64),bytes32,bytes,address,bytes)": {
        "details": "Entry point for receiving messages or packets from the endpoint.Entry point for receiving msg/packet from the LayerZero endpoint.",
        "params": {
          "_executor": "The address of the executor for the received message.",
          "_extraData": "Additional arbitrary data provided by the corresponding executor.",
          "_guid": "The unique identifier for the received LayerZero message.",
          "_message": "The payload of the received message.",
          "_origin": "The origin information containing the source endpoint and sender address.  - srcEid: The source chain endpoint ID.  - sender: The sender address on the src chain.  - nonce: The nonce of the message."
        }
      },
      "nextNonce(uint32,bytes32)": {
        "details": "_srcEid The source endpoint ID._sender The sender address.The path nonce starts from 1. If 0 is returned it means that there is NO nonce ordered enforcement.Is required by the off-chain executor to determine the OApp expects msg execution is ordered.This is also enforced by the OApp.By default this is NOT enabled. ie. nextNonce is hardcoded to return 0.",
        "returns": {
          "nonce": "The next nonce."
        }
      },
      "oAppVersion()": {
        "returns": {
          "receiverVersion": "The version of the OAppReceiver.sol implementation.",
          "senderVersion": "The version of the OAppSender.sol implementation."
        }
      },
      "owner()": {
        "details": "Returns the address of the current owner."
      },
      "quote(uint32,string,bytes,bool)": {
        "params": {
          "_dstEid": "Destination chain's endpoint ID.",
          "_message": "The message.",
          "_options": "Message execution options (e.g., for sending gas to destination).",
          "_payInLzToken": "Whether to return fee in ZRO token."
        },
        "returns": {
          "fee": "A `MessagingFee` struct containing the calculated gas fee in either the native token or ZRO token."
        }
      },
      "renounceOwnership()": {
        "details": "Leaves the contract without owner. It will not be possible to call `onlyOwner` functions. Can only be called by the current owner. NOTE: Renouncing ownership will leave the contract without an owner, thereby disabling any functionality that is only available to the owner."
      },
      "send(uint32,string,bytes)": {
        "details": "Encodes the message as bytes and sends it using the `_lzSend` internal function.",
        "params": {
          "_dstEid": "The endpoint ID of the destination chain.",
          "_message": "The message string to be sent.",
          "_options": "Additional options for message execution."
        },
        "returns": {
          "receipt": "A `MessagingReceipt` struct containing details of the message sent."
        }
      },
      "setDelegate(address)": {
        "details": "Only the owner/admin of the OApp can call this function.Provides the ability for a delegate to set configs, on behalf of the OApp, directly on the Endpoint contract.",
        "params": {
          "_delegate": "The address of the delegate to be set."
        }
      },
      "setPeer(uint32,bytes32)": {
        "details": "Only the owner/admin of the OApp can call this function.Indicates that the peer is trusted to send LayerZero messages to this OApp.Set this to bytes32(0) to remove the peer address.Peer is a bytes32 to accommodate non-evm chains.",
        "params": {
          "_eid": "The endpoint ID.",
          "_peer": "The address of the peer to be associated with the corresponding endpoint."
        }
      },
      "transferOwnership(address)": {
        "details": "Transfers ownership of the contract to a new account (`newOwner`). Can only be called by the current owner."
      }
    },
    "version": 1
  },
  "userdoc": {
    "kind": "user",
    "methods": {
      "allowInitializePath((uint32,bytes32,uint64))": {
        "notice": "Checks if the path initialization is allowed based on the provided origin."
      },
      "endpoint()": {
        "notice": "Retrieves the LayerZero endpoint associated with the OApp."
      },
      "isComposeMsgSender((uint32,bytes32,uint64),bytes,address)": {
        "notice": "Indicates whether an address is an approved composeMsg sender to the Endpoint."
      },
      "nextNonce(uint32,bytes32)": {
        "notice": "Retrieves the next nonce for a given source endpoint and sender address."
      },
      "oAppVersion()": {
        "notice": "Retrieves the OApp version information."
      },
      "peers(uint32)": {
        "notice": "Retrieves the peer (OApp) associated with a corresponding endpoint."
      },
      "quote(uint32,string,bytes,bool)": {
        "notice": "Quotes the gas needed to pay for the full omnichain transaction in native gas or ZRO token."
      },
      "send(uint32,string,bytes)": {
        "notice": "Sends a message from the source chain to a destination chain."
      },
      "setDelegate(address)": {
        "notice": "Sets the delegate address for the OApp."
      },
      "setPeer(uint32,bytes32)": {
        "notice": "Sets the peer address (OApp instance) for a corresponding endpoint."
      }
    },
    "version": 1
  },
  "storageLayout": {
    "storage": [
      {
        "astId": 1312,
        "contract": "contracts/MyOApp.sol:MyOApp",
        "label": "_owner",
        "offset": 0,
        "slot": "0",
        "type": "t_address"
      },
      {
        "astId": 770,
        "contract": "contracts/MyOApp.sol:MyOApp",
        "label": "peers",
        "offset": 0,
        "slot": "1",
        "type": "t_mapping(t_uint32,t_bytes32)"
      },
      {
        "astId": 2157,
        "contract": "contracts/MyOApp.sol:MyOApp",
        "label": "token",
        "offset": 0,
        "slot": "2",
        "type": "t_contract(IERC20)1529"
      },
      {
        "astId": 2198,
        "contract": "contracts/MyOApp.sol:MyOApp",
        "label": "challengeCounter",
        "offset": 0,
        "slot": "3",
        "type": "t_uint256"
      },
      {
        "astId": 2203,
        "contract": "contracts/MyOApp.sol:MyOApp",
        "label": "challenges",
        "offset": 0,
        "slot": "4",
        "type": "t_mapping(t_uint256,t_struct(Challenge)2196_storage)"
      },
      {
        "astId": 2209,
        "contract": "contracts/MyOApp.sol:MyOApp",
        "label": "sponsorFunds",
        "offset": 0,
        "slot": "5",
        "type": "t_mapping(t_address,t_mapping(t_uint256,t_uint256))"
      },
      {
        "astId": 2212,
        "contract": "contracts/MyOApp.sol:MyOApp",
        "label": "sponsors",
        "offset": 0,
        "slot": "6",
        "type": "t_array(t_address)dyn_storage"
      },
      {
        "astId": 2280,
        "contract": "contracts/MyOApp.sol:MyOApp",
        "label": "data",
        "offset": 0,
        "slot": "7",
        "type": "t_string_storage"
      }
    ],
    "types": {
      "t_address": {
        "encoding": "inplace",
        "label": "address",
        "numberOfBytes": "20"
      },
      "t_array(t_address)dyn_storage": {
        "base": "t_address",
        "encoding": "dynamic_array",
        "label": "address[]",
        "numberOfBytes": "32"
      },
      "t_array(t_string_storage)dyn_storage": {
        "base": "t_string_storage",
        "encoding": "dynamic_array",
        "label": "string[]",
        "numberOfBytes": "32"
      },
      "t_bool": {
        "encoding": "inplace",
        "label": "bool",
        "numberOfBytes": "1"
      },
      "t_bytes32": {
        "encoding": "inplace",
        "label": "bytes32",
        "numberOfBytes": "32"
      },
      "t_contract(IERC20)1529": {
        "encoding": "inplace",
        "label": "contract IERC20",
        "numberOfBytes": "20"
      },
      "t_mapping(t_address,t_mapping(t_uint256,t_uint256))": {
        "encoding": "mapping",
        "key": "t_address",
        "label": "mapping(address => mapping(uint256 => uint256))",
        "numberOfBytes": "32",
        "value": "t_mapping(t_uint256,t_uint256)"
      },
      "t_mapping(t_address,t_uint256)": {
        "encoding": "mapping",
        "key": "t_address",
        "label": "mapping(address => uint256)",
        "numberOfBytes": "32",
        "value": "t_uint256"
      },
      "t_mapping(t_uint256,t_struct(Challenge)2196_storage)": {
        "encoding": "mapping",
        "key": "t_uint256",
        "label": "mapping(uint256 => struct MyOApp.Challenge)",
        "numberOfBytes": "32",
        "value": "t_struct(Challenge)2196_storage"
      },
      "t_mapping(t_uint256,t_uint256)": {
        "encoding": "mapping",
        "key": "t_uint256",
        "label": "mapping(uint256 => uint256)",
        "numberOfBytes": "32",
        "value": "t_uint256"
      },
      "t_mapping(t_uint32,t_bytes32)": {
        "encoding": "mapping",
        "key": "t_uint32",
        "label": "mapping(uint32 => bytes32)",
        "numberOfBytes": "32",
        "value": "t_bytes32"
      },
      "t_string_storage": {
        "encoding": "bytes",
        "label": "string",
        "numberOfBytes": "32"
      },
      "t_struct(Challenge)2196_storage": {
        "encoding": "inplace",
        "label": "struct MyOApp.Challenge",
        "members": [
          {
            "astId": 2159,
            "contract": "contracts/MyOApp.sol:MyOApp",
            "label": "creator",
            "offset": 0,
            "slot": "0",
            "type": "t_address"
          },
          {
            "astId": 2162,
            "contract": "contracts/MyOApp.sol:MyOApp",
            "label": "videoLinks",
            "offset": 0,
            "slot": "1",
            "type": "t_array(t_string_storage)dyn_storage"
          },
          {
            "astId": 2164,
            "contract": "contracts/MyOApp.sol:MyOApp",
            "label": "stakeAmount",
            "offset": 0,
            "slot": "2",
            "type": "t_uint256"
          },
          {
            "astId": 2166,
            "contract": "contracts/MyOApp.sol:MyOApp",
            "label": "repetitions",
            "offset": 0,
            "slot": "3",
            "type": "t_uint256"
          },
          {
            "astId": 2168,
            "contract": "contracts/MyOApp.sol:MyOApp",
            "label": "startTime",
            "offset": 0,
            "slot": "4",
            "type": "t_uint256"
          },
          {
            "astId": 2170,
            "contract": "contracts/MyOApp.sol:MyOApp",
            "label": "duration",
            "offset": 0,
            "slot": "5",
            "type": "t_uint256"
          },
          {
            "astId": 2172,
            "contract": "contracts/MyOApp.sol:MyOApp",
            "label": "isOpenForSponsors",
            "offset": 0,
            "slot": "6",
            "type": "t_bool"
          },
          {
            "astId": 2174,
            "contract": "contracts/MyOApp.sol:MyOApp",
            "label": "rewardsDistributed",
            "offset": 1,
            "slot": "6",
            "type": "t_bool"
          },
          {
            "astId": 2178,
            "contract": "contracts/MyOApp.sol:MyOApp",
            "label": "userStakes",
            "offset": 0,
            "slot": "7",
            "type": "t_mapping(t_address,t_uint256)"
          },
          {
            "astId": 2182,
            "contract": "contracts/MyOApp.sol:MyOApp",
            "label": "userProgress",
            "offset": 0,
            "slot": "8",
            "type": "t_mapping(t_address,t_uint256)"
          },
          {
            "astId": 2186,
            "contract": "contracts/MyOApp.sol:MyOApp",
            "label": "userStakeReturned",
            "offset": 0,
            "slot": "9",
            "type": "t_mapping(t_address,t_uint256)"
          },
          {
            "astId": 2189,
            "contract": "contracts/MyOApp.sol:MyOApp",
            "label": "participants",
            "offset": 0,
            "slot": "10",
            "type": "t_array(t_address)dyn_storage"
          },
          {
            "astId": 2191,
            "contract": "contracts/MyOApp.sol:MyOApp",
            "label": "totalStakeAmount",
            "offset": 0,
            "slot": "11",
            "type": "t_uint256"
          },
          {
            "astId": 2193,
            "contract": "contracts/MyOApp.sol:MyOApp",
            "label": "totalSponsoredAmount",
            "offset": 0,
            "slot": "12",
            "type": "t_uint256"
          },
          {
            "astId": 2195,
            "contract": "contracts/MyOApp.sol:MyOApp",
            "label": "totalPenalizedAmount",
            "offset": 0,
            "slot": "13",
            "type": "t_uint256"
          }
        ],
        "numberOfBytes": "448"
      },
      "t_uint256": {
        "encoding": "inplace",
        "label": "uint256",
        "numberOfBytes": "32"
      },
      "t_uint32": {
        "encoding": "inplace",
        "label": "uint32",
        "numberOfBytes": "4"
      }
    }
  }
}